:100000000C942A000C9459040C9486040C94B304A8
:100010000C9447000C9447000C9447000C94470044
:100020000C9447000C9447000C9427060C94170678
:100030000C9447000C9447000C9447000C94470024
:100040000C9447000C9447000C9447000C94470014
:100050000C94470011241FBECFE5D8E0DEBFCDBF12
:1000600010E0A0E6B0E0ECE6FFE002C005900D92E3
:10007000A836B107D9F710E0A8E6B0E001C01D929C
:10008000A138B107E1F70E94AB070C94B4070C94B8
:100090000000AF92CF92EF920F93DF93CF93CDB743
:1000A000DEB729970FB6F894DEBF0FBECDBF8A83A7
:1000B0006B834C832D830E83EF82C886A9861982B9
:1000C0008A81813021F489818160898303C089819B
:1000D0008E7F89838B81813021F48981826089833D
:1000E00003C089818D7F89838C81813021F489814E
:1000F0008460898303C089818B7F89838D8181306E
:1001000021F489818860898303C08981877F8983FD
:100110008E81813021F489818061898303C0898146
:100120008F7E89838F81813021F4898180628983E8
:1001300003C089818F7D89838885813021F48981FD
:100140008064898303C089818F7B8983898581301D
:1001500021F489818068898303C089818F778983AD
:10016000898129960FB6F894DEBF0FBECDBFCF911F
:10017000DF910F91EF90CF90AF9008958F929F9263
:10018000AF92CF92EF920F93DF93CF93CDB7DEB7BD
:100190000F2EFAE38F2E9924F02D80E060E040E0EE
:1001A00020E000E0EE24CC24AA240E944900F401BF
:1001B00080830F2EF7E38F2E9924F02D80E060E0EE
:1001C00040E020E000E0EE24CC24AA240E94490074
:1001D000F40180830F2EF4E38F2E9924F02D80E01C
:1001E00060E040E020E000E0EE24CC24AA240E945D
:1001F0004900F40180830F2EF1E38F2E9924F02D16
:1002000080E061E040E020E000E0EE24CC24AA247D
:100210000E944900F4018083CF91DF910F91EF900C
:10022000CF90AF909F908F900895DF93CF9300D0A1
:1002300000D000D0CDB7DEB789836A834B83898134
:10024000843008F0E4C08A81883008F0DDC08B81FA
:10025000882321F08B81813009F0D4C08981282F37
:1002600030E03E832D838D819E818130910509F49C
:1002700043C02D813E81223031052CF48D819E8139
:10028000009771F0BCC02D813E812230310509F408
:100290005FC08D819E818330910509F485C0AFC018
:1002A0008B818130A1F4AAE3B0E0EAE3F0E0808141
:1002B000482F8A81282F30E081E090E0022E02C092
:1002C000880F991F0A94E2F7842B8C9398C0AAE3B5
:1002D000B0E0EAE3F0E08081482F8A81282F30E007
:1002E00081E090E0022E02C0880F991F0A94E2F785
:1002F000809584238C9383C08B818130A1F4A7E304
:10030000B0E0E7E3F0E08081482F8A81282F30E0D9
:1003100081E090E0022E02C0880F991F0A94E2F754
:10032000842B8C936CC0A7E3B0E0E7E3F0E080811E
:10033000482F8A81282F30E081E090E0022E02C011
:10034000880F991F0A94E2F7809584238C9357C0F5
:100350008B818130A1F4A4E3B0E0E4E3F0E080819C
:10036000482F8A81282F30E081E090E0022E02C0E1
:10037000880F991F0A94E2F7842B8C9340C0A4E362
:10038000B0E0E4E3F0E08081482F8A81282F30E05C
:1003900081E090E0022E02C0880F991F0A94E2F7D4
:1003A000809584238C932BC08B818130A1F4A1E3B1
:1003B000B0E0E1E3F0E08081482F8A81282F30E02F
:1003C00081E090E0022E02C0880F991F0A94E2F7A4
:1003D000842B8C9314C0A1E3B0E0E1E3F0E08081D2
:1003E000482F8A81282F30E081E090E0022E02C061
:1003F000880F991F0A94E2F7809584238C9393E0E9
:100400009C8307C01C8205C021E02C8302C032E01F
:100410003C838C8126960FB6F894DEBF0FBECDBF0D
:10042000CF91DF910895DF93CF9300D000D000D01B
:10043000CDB7DEB789837B836A838981843008F0F6
:100440003DC08A819B818F3F910509F0A8F5898184
:10045000282F30E03E832D838D819E818130910550
:10046000D1F02D813E81223031052CF48D819E8189
:10047000009761F01EC02D813E812230310581F050
:100480008D819E818330910581F013C0EAE3F0E015
:100490008A8180830EC0E7E3F0E08A81808309C00F
:1004A000E4E3F0E08A81808304C0E1E3F0E08A8144
:1004B000808393E09C8304C01C8202C022E02C83D2
:1004C0008C8126960FB6F894DEBF0FBECDBFCF91BC
:1004D000DF910895DF93CF9300D000D000D0CDB747
:1004E000DEB789836A834B838981843008F0E4C056
:1004F0008A81883008F0DDC08B81882321F08B81D0
:10050000813009F0D4C08981282F30E03E832D83CB
:100510008D819E818130910509F443C02D813E81FA
:10052000223031052CF48D819E81009771F0BCC082
:100530002D813E812230310509F45FC08D819E817D
:100540008330910509F485C0AFC08B818130A1F45F
:10055000ABE3B0E0EBE3F0E08081482F8A81282F05
:1005600030E081E090E0022E02C0880F991F0A94CB
:10057000E2F7842B8C9398C0ABE3B0E0EBE3F0E0C0
:100580008081482F8A81282F30E081E090E0022E80
:1005900002C0880F991F0A94E2F7809584238C93F8
:1005A00083C08B818130A1F4A8E3B0E0E8E3F0E000
:1005B0008081482F8A81282F30E081E090E0022E50
:1005C00002C0880F991F0A94E2F7842B8C936CC0A9
:1005D000A8E3B0E0E8E3F0E08081482F8A81282F8B
:1005E00030E081E090E0022E02C0880F991F0A944B
:1005F000E2F7809584238C9357C08B818130A1F4DE
:10060000A5E3B0E0E5E3F0E08081482F8A81282F60
:1006100030E081E090E0022E02C0880F991F0A941A
:10062000E2F7842B8C9340C0A5E3B0E0E5E3F0E073
:100630008081482F8A81282F30E081E090E0022ECF
:1006400002C0880F991F0A94E2F7809584238C9347
:100650002BC08B818130A1F4A2E3B0E0E2E3F0E0B3
:100660008081482F8A81282F30E081E090E0022E9F
:1006700002C0880F991F0A94E2F7842B8C9314C050
:10068000A2E3B0E0E2E3F0E08081482F8A81282FE6
:1006900030E081E090E0022E02C0880F991F0A949A
:1006A000E2F7809584238C9393E09C8307C01C829F
:1006B00005C021E02C8302C032E03C838C81269669
:1006C0000FB6F894DEBF0FBECDBFCF91DF91089576
:1006D000DF93CF9300D000D000D0CDB7DEB78983B1
:1006E0007B836A838A819B818430910508F03DC0B9
:1006F0008A819B818F3F910509F0A8F58981282F78
:1007000030E03E832D838D819E8181309105D1F033
:100710002D813E81223031052CF48D819E81009700
:1007200061F01EC02D813E812230310581F08D8126
:100730009E818330910581F013C0EBE3F0E08A8164
:1007400080830EC0E8E3F0E08A81808309C0E5E39E
:10075000F0E08A81808304C0E2E3F0E08A81808354
:1007600093E09C8304C01C8202C022E02C838C8115
:1007700026960FB6F894DEBF0FBECDBFCF91DF91A6
:100780000895DF93CF93CDB7DEB728970FB6F894CF
:10079000DEBF0FBECDBF89836A835C834B838981B3
:1007A000843008F078C08A81883008F071C089816F
:1007B000282F30E03F832E834E815F8141305105E9
:1007C00059F18E819F818230910534F42E813F81D1
:1007D0002115310569F05BC04E815F8142305105C2
:1007E00079F18E819F818330910509F43DC04FC01E
:1007F000E9E3F0E08081282F30E08A81882F90E0C3
:10080000A90102C0559547958A95E2F7CA01817002
:10081000EB81FC8180833BC0E6E3F0E08081282F00
:1008200030E08A81882F90E0A90102C05595479554
:100830008A95E2F7CA018170EB81FC81808327C031
:10084000E3E3F0E08081282F30E08A81882F90E078
:10085000A90102C0559547958A95E2F7CA018170B2
:10086000EB81FC81808313C0E0E3F0E08081282FDE
:1008700030E08A81882F90E0A90102C05595479504
:100880008A95E2F7CA018170EB81FC81808307C001
:1008900051E05D8302C082E08D839D8198878885C9
:1008A00028960FB6F894DEBF0FBECDBFCF91DF9173
:1008B00008951F920F920FB60F9211242F933F931A
:1008C0004F935F936F937F938F939F93AF93BF9358
:1008D000EF93FF93DF93CF93CDB7DEB7E0916A003C
:1008E000F0916B000995CF91DF91FF91EF91BF914E
:1008F000AF919F918F917F916F915F914F913F91B8
:100900002F910F900FBE0F901F9018951F920F926E
:100910000FB60F9211242F933F934F935F936F93D2
:100920007F938F939F93AF93BF93EF93FF93DF9347
:10093000CF93CDB7DEB7E0916C00F0916D000995D3
:10094000CF91DF91FF91EF91BF91AF919F918F91E7
:100950007F916F915F914F913F912F910F900FBEBB
:100960000F901F9018951F920F920FB60F9211249F
:100970002F933F934F935F936F937F938F939F93A7
:10098000AF93BF93EF93FF93DF93CF93CDB7DEB7D2
:10099000E0916E00F0916F000995CF91DF91FF918A
:1009A000EF91BF91AF919F918F917F916F915F91E7
:1009B0004F913F912F910F900FBE0F901F90189560
:1009C000DF93CF9300D00F92CDB7DEB789838981B3
:1009D000282F30E03B832A838A819B8181309105D7
:1009E00089F02A813B8122303105A1F08A819B81E7
:1009F0000097B9F4ABE5B0E0EBE5F0E0808180640E
:100A00008C930FC0ABE5B0E0EBE5F0E0808180684F
:100A10008C9307C0ABE5B0E0EBE5F0E0808180624D
:100A20008C930F900F900F90CF91DF910895DF93EB
:100A3000CF9300D00F92CDB7DEB789838981282F5D
:100A400030E03B832A838A819B818130910589F044
:100A50002A813B8122303105A1F08A819B81009758
:100A6000B9F4ABE5B0E0EBE5F0E080818F7B8C93EF
:100A70000FC0ABE5B0E0EBE5F0E080818F778C93C1
:100A800007C0ABE5B0E0EBE5F0E080818F7D8C93B3
:100A90000F900F900F90CF91DF910895DF93CF9338
:100AA00000D000D0CDB7DEB789836A838981282F33
:100AB00030E03C832B838B819C8181309105C9F18F
:100AC0002B813C812230310509F461C08B819C81EE
:100AD000009709F06EC08A81882F90E08170907035
:100AE000882341F0A5E5B0E0E5E5F0E08081816094
:100AF0008C9307C0A5E5B0E0E5E5F0E080818E7F4E
:100B00008C938A818695882F90E0817090708823DD
:100B100041F0A5E5B0E0E5E5F0E0808182608C93EE
:100B200048C0A5E5B0E0E5E5F0E080818D7F8C93DD
:100B300040C08A81882F90E081709070882341F0B6
:100B4000A5E5B0E0E5E5F0E0808184608C9307C026
:100B5000A5E5B0E0E5E5F0E080818B7F8C938A81AC
:100B60008695882F90E081709070882341F0A5E5EC
:100B7000B0E0E5E5F0E0808188608C931AC0A5E5DF
:100B8000B0E0E5E5F0E08081877F8C9312C08A8138
:100B9000813041F4A4E5B0E0E4E5F0E080818064D8
:100BA0008C9307C0A4E5B0E0E4E5F0E080818F7BA2
:100BB0008C930F900F900F900F90CF91DF9108952D
:100BC000DF93CF930F92CDB7DEB7898389818130D0
:100BD00041F4AFE5B0E0EFE5F0E0808180688C9310
:100BE00007C0AFE5B0E0EFE5F0E080818F778C9350
:100BF0000F90CF91DF910895DF93CF9300D00F92A4
:100C0000CDB7DEB789837B836A838981882F90E0A3
:100C1000880F991FFC01E659FF4F8A819B819183C0
:100C200080830F900F900F90CF91DF9108951F92C6
:100C30000F920FB60F921124DF93CF93CDB7DEB78B
:100C4000CF91DF910F900FBE0F901F9018951F92BC
:100C50000F920FB60F9211242F933F934F935F93F0
:100C60006F937F938F939F93AF93BF93EF93FF9374
:100C7000DF93CF93CDB7DEB7809168009091690084
:100C8000009761F481E060E040E00E946A0281E048
:100C900090E0909369008093680010C08091680094
:100CA000909169008130910549F481E060E041E074
:100CB0000E946A021092690010926800CF91DF9141
:100CC000FF91EF91BF91AF919F918F917F916F9124
:100CD0005F914F913F912F910F900FBE0F901F90FA
:100CE0001895DF93CF93CDB7DEB7A3E5B0E0E3E58A
:100CF000F0E08081877F8C93A3E5B0E0E3E5F0E04E
:100D0000808180648C93ECE5F0E08FE78083A9E537
:100D1000B0E0E9E5F0E0808182608C93AFE5B0E07F
:100D2000EFE5F0E0808180688C93A3E5B0E0E3E537
:100D3000F0E080818E7F8C93A3E5B0E0E3E5F0E006
:100D4000808182608C93A3E5B0E0E3E5F0E08081F0
:100D50008B7F8C9381E063E041E00E941501A3E565
:100D6000B0E0E3E5F0E080818F7E8C93A3E5B0E016
:100D7000E3E5F0E0808180628C93A3E5B0E0E3E5F9
:100D8000F0E080818F778C93CF91DF910895DF938E
:100D9000CF930F92CDB7DEB78983ECE5F0E0898180
:100DA00080830F90CF91DF910895DF93CF93CDB7DC
:100DB000DEB7E0E4F0E01082E9E2F0E083E3808374
:100DC000E0E4F0E086E88083EAE2F0E088E1808316
:100DD000CF91DF910895DF93CF930F92CDB7DEB718
:100DE0008983EBE2F0E08081829586958770882F79
:100DF00090E0817090700097A1F3ECE2F0E08981BF
:100E000080830F90CF91DF910895DF93CF93CDB77B
:100E1000DEB7EBE2F0E080818823DCF7ECE2F0E083
:100E20008081CF91DF910895DF93CF9300D0CDB72C
:100E3000DEB79A8389830AC0E981FA8180810E94A2
:100E4000EB0689819A8101969A838983E981FA81E7
:100E50008081882389F70F900F90CF91DF910895BB
:100E60000F931F93DF93CF9300D00F92CDB7DEB7D0
:100E70009B838A8319828981282F30E08A819B8114
:100E80008C01020F131F0E940507F80180830FC019
:100E900089818F5F89838981282F30E08A819B81B6
:100EA0008C01020F131F0E940507F80180838981BE
:100EB000282F30E08A819B81FC01E20FF31F8081A3
:100EC0008B3431F70F900F900F90CF91DF911F91DE
:100ED0000F910895DF93CF93CDB7DEB70E94BE0088
:100EE0000E94D506CF91DF910895DF93CF93CDB7C0
:100EF000DEB70E947E07CF91DF910895DF93CF93F5
:100F000000D0CDB7DEB781E08A838CE790E00E9405
:100F10003007198215C08981882F90E0FC01E458C0
:100F2000FF4F20818981882F90E0FC01EE59FF4F0F
:100F30008081281711F01A8206C089818F5F89830A
:100F40008981843040F38A810E94EB060F900F90D4
:100F5000CF91DF910895DF93CF93CDB7DEB70E9495
:0C0F60006A070E947507FFCFF894FFCFCE
:080F6C000405313233340000AA
:00000001FF
