:100000000C942A000C9447000C9447000C94470071
:100010000C9447000C9447000C9447000C94470044
:100020000C9447000C9447000C9447000C94470034
:100030000C9447000C9447000C9447000C94470024
:100040000C9447000C9447000C9447000C94470014
:100050000C94470011241FBECFE5D8E0DEBFCDBF12
:1000600011E0A0E6B0E0ECE2F6E302C005900D92EC
:10007000A239B107D9F711E0A2E9B1E001C01D92A0
:10008000AA3AB107E1F70E944E1A0C94141B0C9483
:100090000000EF92FF920F931F937B018C0120E0F1
:1000A00030E040E05FE40E94F50388238CF0C80153
:1000B000B70120E030E040E05FE40E94C1010E940F
:1000C00055049B01AC01205030404040504806C0D0
:1000D000C801B7010E9455049B01AC01B901CA01D6
:1000E0001F910F91FF90EF900895A0E0B0E0EBE733
:1000F000F0E00C94981ADC012B01FA019C919230EB
:1001000008F439C1EB018881823008F433C194309E
:1001100069F4843009F02FC111969C91119789815F
:10012000981709F428C1A2E7B0E025C1843009F48A
:1001300021C18230A9F4923009F01DC19A01AD01AC
:1001400088E0EA010990AE01E90109929E0181501F
:10015000C1F7E201898111969C918923818308C1AD
:10016000923009F407C112962D903C901397EB0141
:100170008A819B811496AD90BD90CD90DC901797AD
:10018000EC80FD800E811F819101281B390BB90184
:1001900037FF04C066277727621B730B6032710537
:1001A0000CF061C0121613066CF537014801062EDB
:1001B00004C096948794779467940A94D2F721E0C8
:1001C00030E040E050E004C0220F331F441F551FB1
:1001D0006A95D2F721503040404050402E213F21B7
:1001E00040235123211531054105510521F021E01E
:1001F00030E040E050E079018A01E628F72808293C
:1002000019293CC0232BD1F1260E371E350146019A
:10021000062E04C096948794779467940A94D2F734
:1002200021E030E040E050E004C0220F331F441FC3
:10023000551F6A95D2F721503040404050402A2146
:100240003B214C215D21211531054105510521F04E
:1002500021E030E040E050E059016A01A628B728CB
:10026000C828D9280BC0821593052CF01C01AA249C
:10027000BB24650103C0EE24FF24870111969C91E5
:10028000D20111968C91981709F445C0992339F041
:10029000A80197012A193B094C095D0906C0A6016E
:1002A00095012E193F09400B510B57FD08C01182D3
:1002B0003382228224833583468357831DC081E0A5
:1002C00081833382228288279927DC01821B930B4A
:1002D000A40BB50B84839583A683B7830DC0220F2F
:1002E000331F441F551F24833583468357838281E0
:1002F000938101979383828324813581468157813D
:10030000DA01C9010197A109B1098F5F9F4FAF4F72
:10031000BF4328F30BC0918333822282EA0CFB1C7B
:100320000C1D1D1DE482F5820683178383E0808304
:10033000248135814681578157FF1AC0C901AA27F8
:1003400097FDA095BA2F81709070A070B0705695EF
:10035000479537952795822B932BA42BB52B848318
:100360009583A683B7838281938101969383828349
:10037000DF0101C0D201CD01CDB7DEB7E2E10C94BF
:10038000B41AA0E2B0E0E7ECF1E00C94A41A69839F
:100390007A838B839C832D833E834F835887E9E048
:1003A000EE2EF12CEC0EFD1ECE010196B7010E943F
:1003B00046068E010F5E1F4FCE010596B8010E94C2
:1003C00046068A8991E089278A8BC701B801AE0168
:1003D000475E5F4F0E9475000E947105A096E6E09F
:1003E0000C94C01AA0E2B0E0E8EFF1E00C94A41A7B
:1003F00069837A838B839C832D833E834F835887C5
:10040000F9E0EF2EF12CEC0EFD1ECE010196B701A6
:100410000E9446068E010F5E1F4FCE010596B80161
:100420000E944606C701B801AE01475E5F4F0E94B9
:1004300075000E947105A096E6E00C94C01AA0E237
:10044000B0E0E5E2F2E00C94981A69837A838B833A
:100450009C832D833E834F835887CE010196BE0136
:10046000675F7F4F0E944606CE010596BE016F5E14
:100470007F4F0E9446069985923088F089898230A4
:10048000C8F0943019F4823051F404C0843029F457
:10049000923081F482E790E0C6C0923049F420E0C7
:1004A0009A858A89981321E02A87CE010996BBC0D4
:1004B000823049F420E09A858A89981321E02A8BBA
:1004C000CE014196B0C02D843E844F8458886D88FB
:1004D0007E888F88988CEE24FF248701AA24BB2471
:1004E000650140E050E060E070E0E0E0F0E0C10174
:1004F00081709070892BE9F0E60CF71C081D191D1E
:100500009A01AB012A0D3B1D4C1D5D1D80E090E062
:10051000A0E0B0E0E614F7040805190520F481E036
:1005200090E0A0E0B0E0BA01A901480F591F6A1F8E
:100530007B1FAA0CBB1CCC1CDD1C97FE08C081E0F5
:1005400090E0A0E0B0E0A82AB92ACA2ADB2A3196B6
:10055000E032F10549F0660C771C881C991C569412
:10056000479437942794C3CFFA85EA892B893C892D
:100570008B859C85280F391F2E5F3F4F17C0CA01FE
:1005800081709070892B61F016950795F794E79428
:1005900080E090E0A0E0B0E8E82AF92A0A2B1B2BC3
:1005A00076956795579547952F5F3F4F77FDE7CF36
:1005B0000CC0440F551F661F771F17FD4160EE0CDE
:1005C000FF1C001F111F21503040403090E05907A0
:1005D00090E0690790E4790760F32B8F3C8FDB0193
:1005E000CA018F779070A070B07080349105A1051A
:1005F000B10561F447FD0AC0E114F10401051105DC
:1006000029F0405C5F4F6F4F7F4F40781A8EFE1786
:1006100011F081E08A8F4D8F5E8F6F8F78A383E01A
:10062000898FCE0149960E947105A096E2E10C9453
:10063000B41AA8E1B0E0EFE1F3E00C94A01A6983EA
:100640007A838B839C832D833E834F835887B9E0C5
:10065000EB2EF12CEC0EFD1ECE010196B7010E948F
:1006600046068E010F5E1F4FCE010596B8010E940F
:1006700046062985223008F47EC03989323010F4CC
:10068000B8017CC08A859A8989278A87243011F02D
:10069000223031F4231709F06EC062E770E06EC0BB
:1006A000343039F41D861E861F86188A1C861B86E8
:1006B00004C0323021F484E08987B7015FC02B8504
:1006C0003C858B899C89281B390B3C872B87ED84C3
:1006D000FE840F851889AD88BE88CF88D88CEA142F
:1006E000FB040C051D0540F4EE0CFF1C001F111F40
:1006F000215030403C872B8720E030E040E050E044
:1007000080E090E0A0E0B0E460E070E0EA14FB0478
:100710000C051D0540F0282B392B4A2B5B2BEA18C2
:10072000FB080C091D09B695A79597958795EE0CC2
:10073000FF1C001F111F6F5F7F4F6F31710531F775
:10074000DA01C9018F779070A070B0708034910584
:10075000A105B10561F427FD0AC0E114F10401050A
:10076000110529F0205C3F4F4F4F5F4F20782D87B8
:100770003E874F87588BBE01675F7F4FCB010E943A
:1007800071056896EAE00C94BC1AA8E1B0E0EBECC5
:10079000F3E00C94A41A69837A838B839C832D8362
:1007A0003E834F83588789E0E82EF12CEC0EFD1E26
:1007B000CE010196B7010E9446068E010F5E1F4FC3
:1007C000CE010596B8010E9446068985823040F028
:1007D0008989823028F0C701B8010E94BE0601C095
:1007E0008FEF6896E6E00C94C01AA8E1B0E0EBEF5A
:1007F000F3E00C94A41A69837A838B839C832D8302
:100800003E834F83588789E0E82EF12CEC0EFD1EC5
:10081000CE010196B7010E9446068E010F5E1F4F62
:10082000CE010596B8010E9446068985823040F0C7
:100830008989823028F0C701B8010E94BE0601C034
:100840008FEF6896E6E00C94C01AA8E1B0E0EBE206
:10085000F4E00C94A41A69837A838B839C832D83A0
:100860003E834F83588789E0E82EF12CEC0EFD1E65
:10087000CE010196B7010E9446068E010F5E1F4F02
:10088000CE010596B8010E9446068985823040F067
:100890008989823028F0C701B8010E94BE0601C0D4
:1008A00081E06896E6E00C94C01AACE0B0E0EBE5BD
:1008B000F4E00C94A81A69837A838B839C83CE011D
:1008C0000196BE016B5F7F4F0E9446068D8182308C
:1008D00061F1823050F1843021F48E81882351F10E
:1008E0002EC02F81388537FD20C06E812F31310514
:1008F0001CF06623F9F023C08EE190E0821B930B7D
:1009000029853A854B855C8504C056954795379572
:1009100027958A95D2F76623B1F05095409530958A
:1009200021953F4F4F4F5F4F0EC020E030E040E039
:1009300050E009C02FEF3FEF4FEF5FE704C020E02A
:1009400030E040E050E8B901CA012C96E2E00C9496
:10095000C41AA8E0B0E0EFEAF4E00C94A01A7B011E
:100960008C01611571058105910519F482E0898377
:1009700060C083E089838EE1C82ED12CDC82CB82DB
:10098000ED82FE820F831887C801B7010E942205FD
:10099000FC013197F7FF3BC0222733272E1B3F0B6B
:1009A00057016801022E04C0D694C794B794A79447
:1009B0000A94D2F740E050E060E070E081E090E01F
:1009C000A0E0B0E004C0880F991FAA1FBB1F2A95A2
:1009D000D2F70197A109B1098E219F21A023B1234C
:1009E0000097A105B10521F041E050E060E070E022
:1009F0004A295B296C297D294D835E836F83788723
:100A00008EE190E08E1B9F0B9C838B8312C03097EE
:100A100081F00E2E04C0EE0CFF1C001F111F0A9463
:100A2000D2F7ED82FE820F831887CE1ADF0ADC82AE
:100A3000CB821A82CE0101960E9471052896EAE0C7
:100A40000C94BC1AEF92FF920F931F937B018C01C1
:100A500080E0E81680E0F80681E0080780E01807EB
:100A600088F48FEFE816F1040105110531F028F044
:100A700088E090E0A0E0B0E017C080E090E0A0E067
:100A8000B0E012C080E0E81680E0F80680E00807D9
:100A900081E0180728F088E190E0A0E0B0E004C011
:100AA00080E190E0A0E0B0E020E230E040E050E003
:100AB000281B390B4A0B5B0B04C016950795F7945E
:100AC000E7948A95D2F7F701E658FF4F8081281BFB
:100AD000310941095109C9011F910F91FF90EF9010
:100AE0000895DF92EF92FF920F931F93FC01E48031
:100AF000F58006811781D1808081823048F480E0C2
:100B000090E0A0E1B0E0E82AF92A0A2B1B2BA5C04F
:100B1000843009F49FC0823021F4EE24FF24870141
:100B200005C0E114F1040105110519F4E0E0F0E05D
:100B300096C0628173819FEF623879070CF05BC0C9
:100B400022E83FEF261B370B2A3131052CF020E03D
:100B500030E040E050E02AC0B801A701022E04C0F6
:100B600076956795579547950A94D2F781E090E07E
:100B7000A0E0B0E004C0880F991FAA1FBB1F2A95F0
:100B8000D2F70197A109B1098E219F21A023B1239A
:100B90000097A105B10521F081E090E0A0E0B0E070
:100BA0009A01AB01282B392B4A2B5B2BDA01C901A7
:100BB0008F779070A070B07080349105A105B10559
:100BC00039F427FF09C0205C3F4F4F4F5F4F04C0EF
:100BD000215C3F4F4F4F5F4FE0E0F0E02030A0E05E
:100BE0003A07A0E04A07A0E45A0710F0E1E0F0E07D
:100BF00079018A0127C06038710564F5FB01E1586D
:100C0000FF4FD801C7018F779070A070B07080340B
:100C10009105A105B10539F4E7FE0DC080E490E02F
:100C2000A0E0B0E004C08FE390E0A0E0B0E0E80E08
:100C3000F91E0A1F1B1F17FF05C016950795F7948D
:100C4000E794319687E016950795F794E7948A958F
:100C5000D1F705C0EE24FF248701EFEFF0E06E2FFF
:100C6000679566276795902F9F77D794DD24D79453
:100C70008E2F8695492F462B582F5D29B701CA0123
:100C80001F910F91FF90EF90DF900895FC01DB0121
:100C9000408151812281622F6F7770E0221F2227CD
:100CA000221F9381892F880F822B282F30E0991FD4
:100CB0009927991F11969C93119721153105A9F534
:100CC000411551056105710511F482E037C082E8D4
:100CD0009FEF13969C938E9312979A01AB0167E056
:100CE000220F331F441F551F6A95D1F783E08C9361
:100CF0000DC0220F331F441F551F12968D919C91DA
:100D00001397019713969C938E931297203080E04F
:100D1000380780E0480780E4580758F314962D936D
:100D20003D934D935C93179708952F3F310579F4C8
:100D3000411551056105710519F484E08C930895FE
:100D400064FF03C081E08C9312C01C9210C02F5727
:100D5000304013963C932E93129783E08C9387E058
:100D6000440F551F661F771F8A95D1F7706414963C
:100D70004D935D936D937C93179708951F93DC01BA
:100D8000FB019C91923008F447C08081823008F4C6
:100D900043C0943051F411961C91843099F58181AF
:100DA000682F70E0611B71093FC0843021F09230E0
:100DB00031F48230B9F18181882389F12DC01196F7
:100DC0001C9111978230F1F081811817D9F4129695
:100DD0002D913C911397828193818217930794F010
:100DE00028173907BCF014968D919D910D90BC91F8
:100DF000A02D2481358146815781281739074A075C
:100E00005B0718F4112341F00AC082179307A40767
:100E1000B50740F4112319F061E070E005C06FEFF1
:100E20007FEF02C060E070E0CB011F910895AF92A8
:100E3000CF92EF920F93DF93CF93CDB7DEB7299781
:100E40000FB6F894DEBF0FBECDBF8A836B834C8391
:100E50002D830E83EF82C886A98619828A8181300C
:100E600021F489818160898303C089818E7F898390
:100E70008B81813021F489818260898303C08981DB
:100E80008D7F89838C81813021F48981846089837D
:100E900003C089818B7F89838D81813021F4898191
:100EA0008860898303C08981877F89838E818130AF
:100EB00021F489818061898303C089818F7E898340
:100EC0008F81813021F489818062898303C0898187
:100ED0008F7D89838885813021F48981806489832D
:100EE00003C089818F7B89838985813021F4898141
:100EF0008068898303C089818F7789838981299656
:100F00000FB6F894DEBF0FBECDBFCF91DF910F912A
:100F1000EF90CF90AF9008958F929F92AF92CF9223
:100F2000EF920F93DF93CF93CDB7DEB70F2EFAE397
:100F30008F2E9924F02D81E061E041E021E001E075
:100F4000EE24E394CC24C394AA24A3940E9417070C
:100F5000F40180830F2EF7E38F2E9924F02D80E08B
:100F600060E040E020E000E0EE24CC24AA240E94CF
:100F70001707F40180830F2EF4E38F2E9924F02DB0
:100F800081E061E041E020E000E0EE24CC24AA24EE
:100F90000E941707F40180830F2EF1E38F2E99240E
:100FA000F02D81E061E041E021E000E0EE24CC247E
:100FB000AA240E941707F4018083CF91DF910F913B
:100FC000EF90CF90AF909F908F900895DF93CF9345
:100FD00000D000D000D0CDB7DEB789836A834B83C1
:100FE0008981843008F0E4C08A81883008F0DDC04F
:100FF0008B81882321F08B81813009F0D4C08981D5
:10100000282F30E03E832D838D819E818130910594
:1010100009F443C02D813E81223031052CF48D81AD
:101020009E81009771F0BCC02D813E812230310538
:1010300009F45FC08D819E818330910509F485C0DC
:10104000AFC08B818130A1F4AAE3B0E0EAE3F0E025
:101050008081482F8A81282F30E081E090E0022EA5
:1010600002C0880F991F0A94E2F7842B8C9398C0D2
:10107000AAE3B0E0EAE3F0E08081482F8A81282FDC
:1010800030E081E090E0022E02C0880F991F0A94A0
:10109000E2F7809584238C9383C08B818130A1F407
:1010A000A7E3B0E0E7E3F0E08081482F8A81282FB2
:1010B00030E081E090E0022E02C0880F991F0A9470
:1010C000E2F7842B8C936CC0A7E3B0E0E7E3F0E099
:1010D0008081482F8A81282F30E081E090E0022E25
:1010E00002C0880F991F0A94E2F7809584238C939D
:1010F00057C08B818130A1F4A4E3B0E0E4E3F0E0D9
:101100008081482F8A81282F30E081E090E0022EF4
:1011100002C0880F991F0A94E2F7842B8C9340C079
:10112000A4E3B0E0E4E3F0E08081482F8A81282F37
:1011300030E081E090E0022E02C0880F991F0A94EF
:10114000E2F7809584238C932BC08B818130A1F4AE
:10115000A1E3B0E0E1E3F0E08081482F8A81282F0D
:1011600030E081E090E0022E02C0880F991F0A94BF
:10117000E2F7842B8C9314C0A1E3B0E0E1E3F0E04C
:101180008081482F8A81282F30E081E090E0022E74
:1011900002C0880F991F0A94E2F7809584238C93EC
:1011A00093E09C8307C01C8205C021E02C8302C011
:1011B00032E03C838C8126960FB6F894DEBF0FBEDA
:1011C000CDBFCF91DF910895DF93CF9300D000D0B2
:1011D00000D0CDB7DEB789837B836A838981843071
:1011E00008F03DC08A819B818F3F910509F0A8F5E9
:1011F0008981282F30E03E832D838D819E8181302F
:101200009105D1F02D813E81223031052CF48D8164
:101210009E81009761F01EC02D813E8122303105F4
:1012200081F08D819E818330910581F013C0EAE3C6
:10123000F0E08A8180830EC0E7E3F0E08A8180835A
:1012400009C0E4E3F0E08A81808304C0E1E3F0E0D8
:101250008A81808393E09C8304C01C8202C022E0C8
:101260002C838C8126960FB6F894DEBF0FBECDBFBF
:10127000CF91DF910895DF93CF9300D000D000D0BD
:10128000CDB7DEB789836A834B838981843008F0C8
:10129000E4C08A81883008F0DDC08B81882321F08A
:1012A0008B81813009F0D4C08981282F30E03E83C2
:1012B0002D838D819E818130910509F443C02D815C
:1012C0003E81223031052CF48D819E81009771F092
:1012D000BCC02D813E812230310509F45FC08D8173
:1012E0009E818330910509F485C0AFC08B81813028
:1012F000A1F4ABE3B0E0EBE3F0E08081482F8A811A
:10130000282F30E081E090E0022E02C0880F991F64
:101310000A94E2F7842B8C9398C0ABE3B0E0EBE344
:10132000F0E08081482F8A81282F30E081E090E032
:10133000022E02C0880F991F0A94E2F78095842339
:101340008C9383C08B818130A1F4A8E3B0E0E8E303
:10135000F0E08081482F8A81282F30E081E090E002
:10136000022E02C0880F991F0A94E2F7842B8C93F7
:101370006CC0A8E3B0E0E8E3F0E08081482F8A8108
:10138000282F30E081E090E0022E02C0880F991FE4
:101390000A94E2F7809584238C9357C08B81813027
:1013A000A1F4A5E3B0E0E5E3F0E08081482F8A8175
:1013B000282F30E081E090E0022E02C0880F991FB4
:1013C0000A94E2F7842B8C9340C0A5E3B0E0E5E3F8
:1013D000F0E08081482F8A81282F30E081E090E082
:1013E000022E02C0880F991F0A94E2F78095842389
:1013F0008C932BC08B818130A1F4A2E3B0E0E2E3B7
:10140000F0E08081482F8A81282F30E081E090E051
:10141000022E02C0880F991F0A94E2F7842B8C9346
:1014200014C0A2E3B0E0E2E3F0E08081482F8A81BB
:10143000282F30E081E090E0022E02C0880F991F33
:101440000A94E2F7809584238C9393E09C8307C0F1
:101450001C8205C021E02C8302C032E03C838C81D9
:1014600026960FB6F894DEBF0FBECDBFCF91DF91A9
:101470000895DF93CF9300D000D000D0CDB7DEB772
:1014800089837B836A838A819B818430910508F0FC
:101490003DC08A819B818F3F910509F0A8F5898124
:1014A000282F30E03E832D838D819E8181309105F0
:1014B000D1F02D813E81223031052CF48D819E8129
:1014C000009761F01EC02D813E812230310581F0F0
:1014D0008D819E818330910581F013C0EBE3F0E0B4
:1014E0008A8180830EC0E8E3F0E08A81808309C0AE
:1014F000E5E3F0E08A81808304C0E2E3F0E08A81E2
:10150000808393E09C8304C01C8202C022E02C8371
:101510008C8126960FB6F894DEBF0FBECDBFCF915B
:10152000DF910895DF93CF93CDB7DEB728970FB63D
:10153000F894DEBF0FBECDBF89836A835C834B8383
:101540008981843008F078C08A81883008F071C0C1
:101550008981282F30E03F832E834E815F81413087
:10156000510559F18E819F818230910534F42E818D
:101570003F812115310569F05BC04E815F814230AA
:10158000510579F18E819F818330910509F43DC029
:101590004FC0E9E3F0E08081282F30E08A81882F76
:1015A00090E0A90102C0559547958A95E2F7CA01D6
:1015B0008170EB81FC8180833BC0E6E3F0E08081B9
:1015C000282F30E08A81882F90E0A90102C055952C
:1015D00047958A95E2F7CA018170EB81FC8180838F
:1015E00027C0E3E3F0E08081282F30E08A81882F54
:1015F00090E0A90102C0559547958A95E2F7CA0186
:101600008170EB81FC81808313C0E0E3F0E0808196
:10161000282F30E08A81882F90E0A90102C05595DB
:1016200047958A95E2F7CA018170EB81FC8180833E
:1016300007C051E05D8302C082E08D839D81988761
:10164000888528960FB6F894DEBF0FBECDBFCF9128
:10165000DF910895DF93CF9300D0CDB7DEB71A8224
:101660000FC08A81882F90E0FC01E258FE4F9081E4
:1016700083E0692F41E00E94E6078A818F5F8A83B9
:101680008A81843070F319821BC08981882F90E091
:10169000FC01E658FE4F908183E0692F40E00E94F4
:1016A000E6078981882F90E0FC01E658FE4F908183
:1016B00083E0692F41E00E943B0989818F5F898324
:1016C0008981843010F30F900F90CF91DF910895AE
:1016D000DF93CF9300D000D0CDB7DEB781E0898310
:1016E0001B8263C08B81882F90E0FC01E258FE4F83
:1016F000908183E0692F40E00E943B091A8242C03A
:101700008A81882F90E0FC01E658FE4F90819E016F
:101710002C5F3F4F83E0692FA9010E94920A8C81C0
:10172000882369F58A81482F50E08B81282F30E08B
:10173000CA01880F991F880F991F820F931FFC0100
:10174000EE57FE4F808189830FC08A81882F90E0F9
:10175000FC01E658FE4F90819E012C5F3F4F83E0D5
:10176000692FA9010E94920A8C81882371F38981D3
:101770000F900F900F900F90CF91DF9108958A8175
:101780008F5F8A838A81843008F4BACF8B81882F57
:1017900090E0FC01E258FE4F908183E0692F41E028
:1017A0000E943B098B818F5F8B838B81843008F48F
:1017B00099CF96CF0F931F93DF93CF93CDB7DEB71B
:1017C000CC54D0400FB6F894DEBF0FBECDBFFE01A3
:1017D000E75BFF4F80E090E0ACE0B2E48083918370
:1017E000A283B3838E010B5B1F4FFE01E75BFF4FAC
:1017F000608171818281938120E030E04AEF54E47E
:101800000E941F02DC01CB01F80180839183A28337
:10181000B383FE01EB5BFF4F608171818281938115
:1018200020E030E040E85FE30E942504882344F490
:10183000FE01ED5BFF4F81E090E09183808364C007
:10184000FE01EB5BFF4F608171818281938120E01B
:101850003FEF4FE757E40E94C50318160CF043C052
:10186000FE01E75BFF4F608171818281938120E0FF
:1018700030E040E251E40E941F02DC01CB018E0106
:101880000D5B1F4FBC01CD010E944900DC01CB0163
:10189000F801918380831FC0FE01EF5BFF4F88EC4E
:1018A00090E091838083FE01EF5BFF4F8081918107
:1018B0000197F1F7FE01EF5BFF4F91838083DE011B
:1018C000AD5BBF4FFE01ED5BFF4F808191810197C2
:1018D00011969C938E93FE01ED5BFF4F8081918169
:1018E0000097D1F624C08E010D5B1F4FFE01EB5B0C
:1018F000FF4F60817181828193810E944900DC01E8
:10190000CB01F80191838083FE01ED5BFF4F808165
:101910009181FE01FF9691838083FE01FF96808175
:1019200091810197F1F7FE01FF969183808388E30F
:101930000E949D0E80E090E0A0E2B2E48BAF9CAFED
:10194000ADAFBEAF6BAD7CAD8DAD9EAD2BEA3AEACF
:101950004AE250E40E941F02DC01CB018FAB98AF3A
:10196000A9AFBAAF6FA978AD89AD9AAD20E030E0EC
:1019700040E85FE30E94250488231CF481E08EABDD
:1019800091C06FA978AD89AD9AAD20E030E04FE706
:1019900053E40E94C50318160CF07BC06BAD7CAD00
:1019A0008DAD9EAD20E030E04AE754E40E9419037B
:1019B000DC01CB018AAB9BABACABBDAB6AA97BA90D
:1019C0008CA99DA920E030E04AEF54E40E941F0258
:1019D000DC01CB018EA79FA7A8ABB9AB6EA57FA5F5
:1019E00088A999A920E030E040E85FE30E9425043F
:1019F00088232CF481E090E09DA78CA73FC06EA5C2
:101A00007FA588A999A920E03FEF4FE757E40E94FE
:101A1000C50318164CF56AA97BA98CA99DA920E0DD
:101A200030E040E251E40E941F02DC01CB01BC0126
:101A3000CD010E944900DC01CB019DA78CA70FC0FE
:101A400088EC90E09BA78AA78AA59BA50197F1F750
:101A50009BA78AA78CA59DA501979DA78CA78CA560
:101A60009DA5009769F724C06EA57FA588A999A9AF
:101A70000E944900DC01CB019DA78CA78CA59DA5E8
:101A800099A788A788A599A50197F1F799A788A78D
:101A90000FC06FA978AD89AD9AAD0E944900DC01F5
:101AA000CB018EAB8EA98FA38FA18A95F1F78FA35F
:101AB0008CE00E949D0E80E090E0A0E2B2E48BA357
:101AC0009CA3ADA3BEA36BA17CA18DA19EA12BEA7B
:101AD0003AEA4AE250E40E941F02DC01CB018F8FF8
:101AE00098A3A9A3BAA36F8D78A189A19AA120E098
:101AF00030E040E85FE30E94250488231CF481E085
:101B00008E8F91C06F8D78A189A19AA120E030E0DD
:101B10004FE753E40E94C50318160CF07BC06BA17D
:101B20007CA18DA19EA120E030E04AE754E40E9410
:101B30001903DC01CB018A8F9B8FAC8FBD8F6A8D1F
:101B40007B8D8C8D9D8D20E030E04AEF54E40E9427
:101B50001F02DC01CB018E8B9F8BA88FB98F6E8902
:101B60007F89888D998D20E030E040E85FE30E9416
:101B7000250488232CF481E090E09D8B8C8B3FC062
:101B80006E897F89888D998D20E03FEF4FE757E47C
:101B90000E94C50318164CF56A8D7B8D8C8D9D8D2A
:101BA00020E030E040E251E40E941F02DC01CB0162
:101BB000BC01CD010E944900DC01CB019D8B8C8BC7
:101BC0000FC088EC90E09B8B8A8B8A899B89019758
:101BD000F1F79B8B8A8B8C899D8901979D8B8C8BD0
:101BE0008C899D89009769F724C06E897F89888DCB
:101BF000998D0E944900DC01CB019D8B8C8B8C89D7
:101C00009D89998B888B888999890197F1F7998BA0
:101C1000888B0FC06F8D78A189A19AA10E9449007D
:101C2000DC01CB018E8F8E8D8F878F858A95F1F7A2
:101C30008F8781E00E949D0E80E090E0A0E0B0E4FC
:101C40008B879C87AD87BE876B857C858D859E85C0
:101C500020E030E04AEF54E40E941F02DC01CB0197
:101C60008F839887A987BA876F81788589859A85B8
:101C700020E030E040E85FE30E94250488232CF454
:101C800081E090E09E838D833FC06F817885898558
:101C90009A8520E03FEF4FE757E40E94C5031816EE
:101CA0004CF56B857C858D859E8520E030E040E29B
:101CB00051E40E941F02DC01CB01BC01CD010E9456
:101CC0004900DC01CB019E838D830FC088EC90E03E
:101CD0009C838B838B819C810197F1F79C838B8301
:101CE0008D819E8101979E838D838D819E8100973A
:101CF00069F714C06F81788589859A850E944900AB
:101D0000DC01CB019E838D838D819E819A838983A3
:101D100089819A810197F1F79A83898386E00E94ED
:101D20009D0EC45BDF4F0FB6F894DEBF0FBECDBF74
:101D3000CF91DF911F910F910895DF93CF930F9271
:101D4000CDB7DEB7898382E060E040E00E943B09C6
:101D500089810E94AF0E0F90CF91DF910895DF939C
:101D6000CF93CDB7DEB769970FB6F894DEBF0FBE3D
:101D7000CDBF898F82E061E040E00E943B09898D00
:101D8000982F917080E060E0492F0E943B09898D77
:101D90008695982F917080E061E0492F0E943B0961
:101DA000898D86958695982F917080E062E0492F05
:101DB0000E943B09898D869586958695982F91700E
:101DC00080E063E0492F0E943B09898D82958F70E6
:101DD000982F917080E064E0492F0E943B09898D23
:101DE000829586958770982F917080E065E0492FE5
:101DF0000E943B09898D8295869586958370982FE0
:101E0000917080E066E0492F0E943B09898D982FF0
:101E1000991F9927991F80E067E0492F0E943B098D
:101E200082E062E041E00E943B0980E090E0A0E8AF
:101E3000BFE38D8B9E8BAF8BB88F6D897E898F8929
:101E4000988D2BEA3AEA4AE250E40E941F02DC0134
:101E5000CB01898B9A8BAB8BBC8B69897A898B89F7
:101E60009C8920E030E040E85FE30E94250488235D
:101E70001CF481E0888B91C069897A898B899C895F
:101E800020E030E04FE753E40E94C50318160CF041
:101E90007BC06D897E898F89988D20E030E04AE78C
:101EA00054E40E941903DC01CB018C879D87AE8727
:101EB000BF876C857D858E859F8520E030E04AEF69
:101EC00054E40E941F02DC01CB0188879987AA870E
:101ED000BB87688579858A859B8520E030E040E86E
:101EE0005FE30E94250488232CF481E090E09F8327
:101EF0008E833FC0688579858A859B8520E03FEF8A
:101F00004FE757E40E94C50318164CF56C857D8594
:101F10008E859F8520E030E040E251E40E941F0260
:101F2000DC01CB01BC01CD010E944900DC01CB01E9
:101F30009F838E830FC088EC90E09D838C838C817F
:101F40009D810197F1F79D838C838E819F810197FD
:101F50009F838E838E819F81009769F724C0688557
:101F600079858A859B850E944900DC01CB019F838E
:101F70008E838E819F819B838A838A819B81019737
:101F8000F1F79B838A830FC069897A898B899C8941
:101F90000E944900DC01CB01888B88898983898173
:101FA0008A95F1F7898382E062E040E00E943B0974
:101FB00069960FB6F894DEBF0FBECDBFCF91DF910B
:101FC0000895DF93CF930F92CDB7DEB7898382E078
:101FD00060E041E00E943B0989810E94AF0E0F90B2
:101FE000CF91DF910895DF93CF9300D0CDB7DEB7C7
:101FF0009A8389830AC0E981FA8180810E94E10F76
:1020000089819A8101969A838983E981FA81808105
:10201000882389F70F900F90CF91DF910895DF9378
:10202000CF93CDB7DEB76A970FB6F894DEBF0FBE79
:10203000CDBF6F8B788F898F9A8F19828F89988DFA
:10204000A98DBA8D0097A105B105F1F58981282FD9
:1020500030E0CE010396FC01E20FF31F80E38083A2
:1020600089818F5F898330C08F89988DA98DBA8DC2
:102070002AE030E040E050E0BC01CD010E94761A39
:10208000DC01CB018A838981282F30E08A81482FA7
:10209000405DCE010396FC01E20FF31F408389816E
:1020A0008F5F89838F89988DA98DBA8D2AE030E062
:1020B00040E050E0BC01CD010E94761ADA01C9016E
:1020C0008F8B988FA98FBA8F8F89988DA98DBA8D94
:1020D0000097A105B10541F68981282F30E0CE0196
:1020E0000396FC01E20FF31F1082CE010396698173
:1020F0000E948710CE0103960E94F30F6A960FB6D6
:10210000F894DEBF0FBECDBFCF91DF910895DF936E
:10211000CF93CDB7DEB729970FB6F894DEBF0FBEC9
:10212000CDBF98878F8369871E82898581508D8373
:1021300033C08E81282F30E08F819885FC01E20F1B
:10214000F31F8081882F90E0A0E0B0E089839A831C
:10215000AB83BC838E81282F30E08F819885DC0192
:10216000A20FB31F8D81282F30E08F819885FC014D
:10217000E20FF31F80818C938D81282F30E08F81B7
:102180009885FC01E20FF31F898180838E818F5F28
:102190008E838D8181508D839E818D81981748F229
:1021A00029960FB6F894DEBF0FBECDBFCF91DF9159
:1021B0000895DF93CF9300D00F92CDB7DEB78A8317
:1021C0006B838A81882F90E00024969587950794E9
:1021D000969587950794982F802D982F8B81890F3E
:1021E000898389818068898389810E949D0E0F90EF
:1021F0000F900F90CF91DF910895DF93CF9300D090
:1022000000D0CDB7DEB78A837C836B838A810E943E
:102210009D0E19820DC0EB81FC8180810E94E10F2F
:102220008B819C8101969C838B8389818F5F8983BD
:102230008981883080F30F900F900F900F90CF918D
:10224000DF910895DF93CF93CDB7DEB72E970FB60A
:10225000F894DEBF0FBECDBF81E00E949D0E80E0EE
:1022600090E0A0E0B0E48B879C87AD87BE876B854C
:102270007C858D859E8520E030E04AEF54E40E9405
:102280001F02DC01CB018F839887A987BA876F81F2
:10229000788589859A8520E030E040E85FE30E94F8
:1022A000250488232CF481E090E09E838D833FC039
:1022B0006F81788589859A8520E03FEF4FE757E465
:1022C0000E94C50318164CF56B857C858D859E850F
:1022D00020E030E040E251E40E941F02DC01CB012B
:1022E000BC01CD010E944900DC01CB019E838D839E
:1022F0000FC088EC90E09C838B838B819C8101973D
:10230000F1F79C838B838D819E8101979E838D83C2
:102310008D819E81009769F714C06F8178858985CA
:102320009A850E944900DC01CB019E838D838D81BB
:102330009E819A83898389819A810197F1F79A8393
:1023400089832E960FB6F894DEBF0FBECDBFCF9116
:10235000DF910895DF93CF93CDB7DEB762970FB6C5
:10236000F894DEBF0FBECDBF9A8B898B89899A897D
:102370009E012F5F3F4FB9014AE050E00E94CF1A03
:10238000CE0101960E94F30F62960FB6F894DEBF5D
:102390000FBECDBFCF91DF910895DF93CF93CDB71F
:1023A000DEB70E948C070E94DA0B0E942A0BCF91A5
:1023B000DF910895DF93CF93CDB7DEB70E94E3118D
:1023C000CF91DF910895DF93CF93CDB7DEB70E9411
:1023D00022110E94EE11CF91DF910895DF93CF93E8
:1023E000CDB7DEB70E94680B8093A20140C08091F8
:1023F000920190919301A0919401B09195012AE0EE
:1024000030E040E050E0BC01CD010E94571ADC01F1
:10241000CB018093920190939301A0939401B09388
:1024200095018091A201882F90E0C0979C014427DC
:1024300037FD4095542F8091920190919301A09186
:102440009401B0919501820F931FA41FB51F809333
:10245000920190939301A0939401B0939501809180
:10246000A2010E94E10F0E94680B8093A20180915B
:10247000A201803328F08091A2018A3308F4B7CFFB
:102480000E944512CF91DF910895DF93CF93CDB78E
:10249000DEB760970FB6F894DEBF0FBECDBF809158
:1024A000A201282F30E0388B2F878F8598898532BD
:1024B000910509F497C02F8538892D33310509F02E
:1024C000C0C00E94221180E065E00E94D91080E621
:1024D00090E00E94F30F80E090E0AAE7B4E48B87DD
:1024E0009C87AD87BE876B857C858D859E8520E02A
:1024F00030E04AEF54E40E941F02DC01CB018F83DD
:102500009887A987BA876F81788589859A8520E021
:1025100030E040E85FE30E94250488232CF481E04A
:1025200090E09E838D833FC06F81788589859A85F1
:1025300020E03FEF4FE757E40E94C50318164CF523
:102540006B857C858D859E8520E030E040E251E4FE
:102550000E941F02DC01CB01BC01CD010E94490099
:10256000DC01CB019E838D830FC088EC90E09C83BF
:102570008B838B819C810197F1F79C838B838D8169
:102580009E8101979E838D838D819E81009769F73F
:1025900014C06F81788589859A850E944900DC0185
:1025A000CB019E838D838D819E819A8389838981CE
:1025B0009A810197F1F79A8389830E942211809171
:1025C000920190919301A0919401B0919501BC0169
:1025D000CD010E940F100E94680B8093A2010E94FF
:1025E000451239C00E94DA1180E090E0A0E0B0E02E
:1025F0008093A3019093A401A093A501B093A60199
:1026000010929201109293011092940110929501F0
:1026100010929601109297011092980110929901D0
:1026200010929A0110929B0110929C0110929D01B0
:1026300010929E0110929F011092A0011092A10190
:102640000AC08091A2010E94E10F8091A2018093B3
:10265000A7010E94341360960FB6F894DEBF0FBE38
:10266000CDBFCF91DF910895DF93CF93CDB7DEB784
:102670000E94680B8093A20140C0809196019091C6
:102680009701A0919801B09199012AE030E040E0D3
:1026900050E0BC01CD010E94571ADC01CB018093B0
:1026A000960190939701A0939801B093990180911E
:1026B000A201882F90E0C0979C01442737FD4095E8
:1026C000542F8091960190919701A0919801B0911B
:1026D0009901820F931FA41FB51F809396019093B9
:1026E0009701A0939801B09399018091A2010E9453
:1026F000E10F0E94680B8093A2018091A2018033B8
:1027000028F08091A2018A3308F4B7CF0E948B137E
:10271000CF91DF910895EF92FF920F931F93DF9374
:10272000CF93CDB7DEB762970FB6F894DEBF0FBE7A
:10273000CDBF8091A701E82EFF24FA8AE98A098992
:102740001A890B321105C1F029893A892C323105D9
:102750003CF489899A898A32910509F47CC09FC02A
:1027600009891A890D32110551F129893A892F32C7
:10277000310509F44BC093C020919201309193012F
:10278000409194015091950180919601909197010B
:10279000A0919801B0919901820F931FA41FB51FBA
:1027A000BC01CD010E94A904DC01CB018093A301EF
:1027B0009093A401A093A501B093A60170C02091AD
:1027C0009201309193014091940150919501809133
:1027D000960190919701A0919801B091990179018A
:1027E0008A01E81AF90A0A0B1B0BD801C701BC01C0
:1027F000CD010E94A904DC01CB018093A301909339
:10280000A401A093A501B093A60149C080919201B3
:1028100090919301A0919401B0919501209196011E
:10282000309197014091980150919901BC01CD01DF
:102830000E94761ADA01C901BC01CD010E94A904E7
:10284000DC01CB018093A3019093A401A093A50187
:10285000B093A60124C08091920190919301A09120
:102860009401B0919501209196013091970140918A
:10287000980150919901BC01CD010E94571ADC01C9
:10288000CB01BC01CD010E94A904DC01CB018093E6
:10289000A3019093A401A093A501B093A6018091F8
:1028A000A201082F10E0188B0F872F853889253259
:1028B000310509F4F8C08F8598898D33910509F0A9
:1028C00021C181E060E00E94D9108AE690E00E9478
:1028D000F30F8091A3019091A401A091A501B09163
:1028E000A601BC01CD010E944900DC01CB01BC0165
:1028F000CD010E940F100E94680B8093A20180916D
:10290000A201853279F580E090E0A0E0B0E080930C
:10291000A3019093A401A093A501B093A6011092E6
:1029200092011092930110929401109295011092CD
:1029300096011092970110929801109299011092AD
:102940009A0110929B0110929C0110929D0110928D
:102950009E0110929F011092A0011092A1010E946D
:10296000E311DAC080E090E0AAEFB3E48B879C87A4
:10297000AD87BE876B857C858D859E8520E030E0A8
:102980004AEF54E40E941F02DC01CB018F83988739
:10299000A987BA876F81788589859A8520E030E09C
:1029A00040E85FE30E94250488232CF481E090E056
:1029B0009E838D833FC06F81788589859A8520E0CD
:1029C0003FEF4FE757E40E94C50318164CF56B859F
:1029D0007C858D859E8520E030E040E251E40E94B8
:1029E0001F02DC01CB01BC01CD010E944900DC01CA
:1029F000CB019E838D830FC088EC90E09C838B83FA
:102A00008B819C810197F1F79C838B838D819E81C3
:102A100001979E838D838D819E81009769F714C0F5
:102A20006F81788589859A850E944900DC01CB01F8
:102A30009E838D838D819E819A83898389819A81EA
:102A40000197F1F79A83898380E090E0A0E0B0E0FD
:102A50008093A3019093A401A093A501B093A60134
:102A6000109292011092930110929401109295018C
:102A7000109296011092970110929801109299016C
:102A800010929A0110929B0110929C0110929D014C
:102A900010929E0110929F011092A0011092A1012C
:102AA0000E94E31139C080E090E0A0E0B0E08093A4
:102AB000A3019093A401A093A501B093A601109245
:102AC000920110929301109294011092950110922C
:102AD000960110929701109298011092990110920C
:102AE0009A0110929B0110929C0110929D011092EC
:102AF0009E0110929F011092A0011092A1010E94CC
:102B0000E3110AC08091A2010E94E10F8091A2010D
:102B10008093A8010E94991562960FB6F894DEBFC3
:102B20000FBECDBFCF91DF911F910F91FF90EF901E
:102B30000895DF93CF93CDB7DEB70E94680B8093E3
:102B4000A20140C080919A0190919B01A0919C01AB
:102B5000B0919D012AE030E040E050E0BC01CD01A1
:102B60000E94571ADC01CB0180939A0190939B013C
:102B7000A0939C01B0939D018091A201882F90E0C9
:102B8000C0979C01442737FD4095542F80919A01AE
:102B900090919B01A0919C01B0919D01820F931F88
:102BA000A41FB51F80939A0190939B01A0939C0151
:102BB000B0939D018091A2010E94E10F0E94680BD9
:102BC0008093A2018091A201803328F08091A2011C
:102BD0008A3308F4B7CF0E94F015CF91DF910895A2
:102BE000EF92FF920F931F93DF93CF93CDB7DEB792
:102BF00062970FB6F894DEBF0FBECDBF8091A801DB
:102C0000282F30E03A8B298B89899A898B3291055C
:102C1000C1F029893A892C3231053CF489899A8995
:102C20008A32910509F47CC09FC029893A892D32E6
:102C3000310561F189899A898F32910509F44BC078
:102C400093C080919A0190919B01A0919C01B091B9
:102C50009D01BC01CD010E94A904DC01CB012091A2
:102C6000A3013091A4014091A5015091A601BC019E
:102C7000CD010E94F201DC01CB018093A30190936E
:102C8000A401A093A501B093A6016EC0E090A3019A
:102C9000F090A4010091A5011091A60180919A01E4
:102CA00090919B01A0919C01B0919D01BC01CD012F
:102CB0000E94A9049B01AC01C801B7010E94C10197
:102CC000DC01CB018093A3019093A401A093A50103
:102CD000B093A60149C0E090A301F090A401009137
:102CE000A5011091A60180919A0190919B01A0915C
:102CF0009C01B0919D01BC01CD010E94A9049B01E2
:102D0000AC01C801B7010E941903DC01CB0180931B
:102D1000A3019093A401A093A501B093A60124C0A0
:102D200080919A0190919B01A0919C01B0919D018D
:102D3000BC01CD010E94A904DC01CB012091A301BB
:102D40003091A4014091A5015091A601BC01CD0193
:102D50000E941F02DC01CB018093A3019093A40188
:102D6000A093A501B093A6018091A201282F30E085
:102D7000388B2F878F8598898532910509F4F8C0A3
:102D80002F8538892D33310509F021C181E060E0BC
:102D90000E94D9108AE690E00E94F30F8091A3016F
:102DA0009091A401A091A501B091A601BC01CD0113
:102DB0000E944900DC01CB01BC01CD010E940F1033
:102DC0000E94680B8093A2018091A201853279F55F
:102DD00080E090E0A0E0B0E08093A3019093A40194
:102DE000A093A501B093A6011092920110929301B5
:102DF00010929401109295011092960110929701F1
:102E0000109298011092990110929A0110929B01D0
:102E100010929C0110929D0110929E0110929F01B0
:102E20001092A0011092A1010E94E311DAC080E08B
:102E300090E0A0E0B0E08093A3019093A401A09360
:102E4000A501B093A60110929201109293011092E5
:102E50009401109295011092960110929701109290
:102E600098011092990110929A0110929B01109270
:102E70009C0110929D0110929E0110929F01109250
:102E8000A0011092A10180E090E0AAEFB3E48B874B
:102E90009C87AD87BE876B857C858D859E8520E070
:102EA00030E04AEF54E40E941F02DC01CB018F8323
:102EB0009887A987BA876F81788589859A8520E068
:102EC00030E040E85FE30E94250488232CF481E091
:102ED00090E09E838D833FC06F81788589859A8538
:102EE00020E03FEF4FE757E40E94C50318164CF56A
:102EF0006B857C858D859E8520E030E040E251E445
:102F00000E941F02DC01CB01BC01CD010E944900DF
:102F1000DC01CB019E838D830FC088EC90E09C8305
:102F20008B838B819C810197F1F79C838B838D81AF
:102F30009E8101979E838D838D819E81009769F785
:102F400014C06F81788589859A850E944900DC01CB
:102F5000CB019E838D838D819E819A838983898114
:102F60009A810197F1F79A8389830E94E31139C00E
:102F700080E090E0A0E0B0E08093A3019093A401F2
:102F8000A093A501B093A601109292011092930113
:102F9000109294011092950110929601109297014F
:102FA000109298011092990110929A0110929B012F
:102FB00010929C0110929D0110929E0110929F010F
:102FC0001092A0011092A1010E94E3110AC0809109
:102FD000A2010E94E10F8091A2018093A9010E94A9
:102FE000FE1762960FB6F894DEBF0FBECDBFCF912D
:102FF000DF911F910F91FF90EF900895DF93CF9392
:10300000CDB7DEB70E94680B8093A20140C08091CB
:103010009E0190919F01A091A001B091A1012AE091
:1030200030E040E050E0BC01CD010E94571ADC01C5
:10303000CB0180939E0190939F01A093A001B09338
:10304000A1018091A201882F90E0C0979C014427A4
:1030500037FD4095542F80919E0190919F01A09142
:10306000A001B091A101820F931FA41FB51F8093EF
:103070009E0190939F01A093A001B093A101809124
:10308000A2010E94E10F0E94680B8093A20180912F
:10309000A201803328F08091A2018A3308F4B7CFCF
:1030A0000E945518CF91DF910895EF92FF920F93F0
:1030B0001F93DF93CF93CDB7DEB760970FB6F89429
:1030C000DEBF0FBECDBF8091A901282F30E0388B25
:1030D0002F878F8598898B329105C1F02F8538898C
:1030E0002C3231053CF48F8598898A32910509F498
:1030F0007CC09FC02F8538892D32310561F18F85C5
:1031000098898F32910509F44BC093C080919E013C
:1031100090919F01A091A001B091A101BC01CD01AE
:103120000E94A904DC01CB012091A3013091A401EC
:103130004091A5015091A601BC01CD010E94F20170
:10314000DC01CB018093A3019093A401A093A5017E
:10315000B093A6016EC0E090A301F090A40100918D
:10316000A5011091A60180919E0190919F01A091CF
:10317000A001B091A101BC01CD010E94A9049B0155
:10318000AC01C801B7010E94C101DC01CB018093F1
:10319000A3019093A401A093A501B093A60149C0F7
:1031A000E090A301F090A4010091A5011091A60167
:1031B00080919E0190919F01A091A001B091A101E9
:1031C000BC01CD010E94A9049B01AC01C801B7015B
:1031D0000E941903DC01CB018093A3019093A40109
:1031E000A093A501B093A60124C080919E01909167
:1031F0009F01A091A001B091A101BC01CD010E944D
:10320000A904DC01CB012091A3013091A4014091DC
:10321000A5015091A601BC01CD010E941F02DC0155
:10322000CB018093A3019093A401A093A501B09337
:10323000A6018091A201882F90E08D33910509F0BD
:10324000F2C081E060E00E94D9108AE690E00E941E
:10325000F30F8091A3019091A401A091A501B091D9
:10326000A601BC01CD010E944900DC01CB01BC01DB
:10327000CD010E940F100E94680B8093A2018091E3
:10328000A201853279F580E090E0A0E0B0E0809383
:10329000A3019093A401A093A501B093A60110925D
:1032A0009201109293011092940110929501109244
:1032B0009601109297011092980110929901109224
:1032C0009A0110929B0110929C0110929D01109204
:1032D0009E0110929F011092A0011092A1010E94E4
:1032E000E311CFC080E090E0A0E0B0E08093A301C4
:1032F0009093A401A093A501B093A601109292010E
:1033000010929301109294011092950110929601DF
:1033100010929701109298011092990110929A01BF
:1033200010929B0110929C0110929D0110929E019F
:1033300010929F011092A0011092A10180E090E0F4
:10334000AAEFB3E48B879C87AD87BE876B857C85AE
:103350008D859E8520E030E04AEF54E40E941F02F4
:10336000DC01CB018F839887A987BA876F81788525
:1033700089859A8520E030E040E85FE30E942504DB
:1033800088232CF481E090E09E838D833FC06F8181
:10339000788589859A8520E03FEF4FE757E40E94C2
:1033A000C50318164CF56B857C858D859E8520E0C0
:1033B00030E040E251E40E941F02DC01CB01BC017D
:1033C000CD010E944900DC01CB019E838D830FC09B
:1033D00088EC90E09C838B838B819C810197F1F733
:1033E0009C838B838D819E8101979E838D838D81AC
:1033F0009E81009769F714C06F81788589859A85C9
:103400000E944900DC01CB019E838D838D819E81CA
:103410009A83898389819A810197F1F79A838983B5
:103420000E94E3112EC080E090E0A0E0B0E0809325
:10343000A3019093A401A093A501B093A6011092BB
:1034400092011092930110929401109295011092A2
:103450009601109297011092980110929901109282
:103460009A0110929B0110929C0110929D01109262
:103470009E0110929F011092A0011092A1010E9442
:10348000E31160960FB6F894DEBF0FBECDBFCF91AB
:10349000DF911F910F91FF90EF900895DF93CF93ED
:1034A000CDB7DEB70E94CD110E94DA11FFCF629F27
:1034B000D001739FF001829FE00DF11D649FE00D2C
:1034C000F11D929FF00D839FF00D749FF00D659F8D
:1034D000F00D9927729FB00DE11DF91F639FB00D8C
:1034E000E11DF91FBD01CF0111240895A1E21A2E9B
:1034F000AA1BBB1BFD010DC0AA1FBB1FEE1FFF1F98
:10350000A217B307E407F50720F0A21BB30BE40BE7
:10351000F50B661F771F881F991F1A9469F760952E
:103520007095809590959B01AC01BD01CF010895E8
:103530002F923F924F925F926F927F928F929F92C3
:10354000AF92BF92CF92DF92EF92FF920F931F93B1
:10355000CF93DF93CDB7DEB7CA1BDB0B0FB6F89462
:10356000DEBF0FBECDBF09942A88398848885F84A2
:103570006E847D848C849B84AA84B984C884DF8013
:10358000EE80FD800C811B81AA81B981CE0FD11DF7
:103590000FB6F894DEBF0FBECDBFED010895FB015D
:1035A0009F01E8944230C4F04532B4F44A3029F423
:1035B00097FB1EF4909581959F4F642F77270E946B
:1035C000001B805D8A330CF0895D8193CB010097ED
:1035D000A1F716F45DE251931082C9010C94F01A20
:1035E000DC01FC01672F71917723E1F7329704C06A
:1035F0007C916D9370836291AE17BF07C8F30895F5
:10360000AA1BBB1B51E107C0AA1FBB1FA617B70708
:1036100010F0A61BB70B881F991F5A95A9F7809524
:0C3620009095BC01CD010895F894FFCFF7
:10362C0021214572726F72212100416E7377657290
:10363C003A00000000000000000000010202030339
:10364C00030304040404040404040505050505052A
:10365C000505050505050505050506060606060608
:10366C0006060606060606060606060606060606EE
:10367C0006060606060606060606070707070707D8
:10368C0007070707070707070707070707070707BE
:10369C0007070707070707070707070707070707AE
:1036AC00070707070707070707070707070707079E
:1036BC000707070707070707070708080808080888
:1036CC00080808080808080808080808080808086E
:1036DC00080808080808080808080808080808085E
:1036EC00080808080808080808080808080808084E
:1036FC00080808080808080808080808080808083E
:10370C00080808080808080808080808080808082D
:10371C00080808080808080808080808080808081D
:10372C00080808080808080808080808080808080D
:10373C00080808080808080808080001020304051E
:10374C0006073738392F3435362A3132332D2530A8
:02375C003D2B03
:00000001FF
