:100000000C942A000C94F00A0C941D0B0C944A0BCF
:100010000C9447000C9447000C9447000C94470044
:100020000C9447000C9447000C9447000C94470034
:100030000C9447000C9447000C9447000C94470024
:100040000C9447000C9447000C9447000C94470014
:100050000C94470011241FBECFE5D8E0DEBFCDBF12
:1000600011E0A0E6B0E0EAE0F4E402C005900D92F1
:10007000AA3AB107D9F711E0AAEAB1E001C01D928E
:10008000A03BB107E1F70E949B140C9403220C944F
:100090000000EF92FF920F931F937B018C0120E0F1
:1000A00030E040E05FE40E94F50388238CF0C80153
:1000B000B70120E030E040E05FE40E94C1010E940F
:1000C00055049B01AC01205030404040504806C0D0
:1000D000C801B7010E9455049B01AC01B901CA01D6
:1000E0001F910F91FF90EF900895A0E0B0E0EBE733
:1000F000F0E00C948721DC012B01FA019C919230F5
:1001000008F439C1EB018881823008F433C194309E
:1001100069F4843009F02FC111969C91119789815F
:10012000981709F428C1AFE9B1E025C1843009F47A
:1001300021C18230A9F4923009F01DC19A01AD01AC
:1001400088E0EA010990AE01E90109929E0181501F
:10015000C1F7E201898111969C918923818308C1AD
:10016000923009F407C112962D903C901397EB0141
:100170008A819B811496AD90BD90CD90DC901797AD
:10018000EC80FD800E811F819101281B390BB90184
:1001900037FF04C066277727621B730B6032710537
:1001A0000CF061C0121613066CF537014801062EDB
:1001B00004C096948794779467940A94D2F721E0C8
:1001C00030E040E050E004C0220F331F441F551FB1
:1001D0006A95D2F721503040404050402E213F21B7
:1001E00040235123211531054105510521F021E01E
:1001F00030E040E050E079018A01E628F72808293C
:1002000019293CC0232BD1F1260E371E350146019A
:10021000062E04C096948794779467940A94D2F734
:1002200021E030E040E050E004C0220F331F441FC3
:10023000551F6A95D2F721503040404050402A2146
:100240003B214C215D21211531054105510521F04E
:1002500021E030E040E050E059016A01A628B728CB
:10026000C828D9280BC0821593052CF01C01AA249C
:10027000BB24650103C0EE24FF24870111969C91E5
:10028000D20111968C91981709F445C0992339F041
:10029000A80197012A193B094C095D0906C0A6016E
:1002A00095012E193F09400B510B57FD08C01182D3
:1002B0003382228224833583468357831DC081E0A5
:1002C00081833382228288279927DC01821B930B4A
:1002D000A40BB50B84839583A683B7830DC0220F2F
:1002E000331F441F551F24833583468357838281E0
:1002F000938101979383828324813581468157813D
:10030000DA01C9010197A109B1098F5F9F4FAF4F72
:10031000BF4328F30BC0918333822282EA0CFB1C7B
:100320000C1D1D1DE482F5820683178383E0808304
:10033000248135814681578157FF1AC0C901AA27F8
:1003400097FDA095BA2F81709070A070B0705695EF
:10035000479537952795822B932BA42BB52B848318
:100360009583A683B7838281938101969383828349
:10037000DF0101C0D201CD01CDB7DEB7E2E10C94BF
:10038000A321A0E2B0E0E7ECF1E00C9493216983B3
:100390007A838B839C832D833E834F835887E9E048
:1003A000EE2EF12CEC0EFD1ECE010196B7010E943F
:1003B0007E058E010F5E1F4FCE010596B8010E948B
:1003C0007E058A8991E089278A8BC701B801AE0131
:1003D000475E5F4F0E9475000E94A904A096E6E068
:1003E0000C94AF21A0E2B0E0E8EFF1E00C9493218F
:1003F00069837A838B839C832D833E834F835887C5
:10040000F9E0EF2EF12CEC0EFD1ECE010196B701A6
:100410000E947E058E010F5E1F4FCE010596B8012A
:100420000E947E05C701B801AE01475E5F4F0E9482
:1004300075000E94A904A096E6E00C94AF21A0E20A
:10044000B0E0E5E2F2E00C94872169837A838B8344
:100450009C832D833E834F835887CE010196BE0136
:10046000675F7F4F0E947E05CE010596BE016F5EDD
:100470007F4F0E947E059985923088F0898982306D
:10048000C8F0943019F4823051F404C0843029F457
:10049000923081F48FE991E0C6C0923049F420E0B7
:1004A0009A858A89981321E02A87CE010996BBC0D4
:1004B000823049F420E09A858A89981321E02A8BBA
:1004C000CE014196B0C02D843E844F8458886D88FB
:1004D0007E888F88988CEE24FF248701AA24BB2471
:1004E000650140E050E060E070E0E0E0F0E0C10174
:1004F00081709070892BE9F0E60CF71C081D191D1E
:100500009A01AB012A0D3B1D4C1D5D1D80E090E062
:10051000A0E0B0E0E614F7040805190520F481E036
:1005200090E0A0E0B0E0BA01A901480F591F6A1F8E
:100530007B1FAA0CBB1CCC1CDD1C97FE08C081E0F5
:1005400090E0A0E0B0E0A82AB92ACA2ADB2A3196B6
:10055000E032F10549F0660C771C881C991C569412
:10056000479437942794C3CFFA85EA892B893C892D
:100570008B859C85280F391F2E5F3F4F17C0CA01FE
:1005800081709070892B61F016950795F794E79428
:1005900080E090E0A0E0B0E8E82AF92A0A2B1B2BC3
:1005A00076956795579547952F5F3F4F77FDE7CF36
:1005B0000CC0440F551F661F771F17FD4160EE0CDE
:1005C000FF1C001F111F21503040403090E05907A0
:1005D00090E0690790E4790760F32B8F3C8FDB0193
:1005E000CA018F779070A070B07080349105A1051A
:1005F000B10561F447FD0AC0E114F10401051105DC
:1006000029F0405C5F4F6F4F7F4F40781A8EFE1786
:1006100011F081E08A8F4D8F5E8F6F8F78A383E01A
:10062000898FCE0149960E94A904A096E2E10C941C
:10063000A321A8E1B0E0EFE1F3E00C948F216983FE
:100640007A838B839C832D833E834F835887B9E0C5
:10065000EB2EF12CEC0EFD1ECE010196B7010E948F
:100660007E058E010F5E1F4FCE010596B8010E94D8
:100670007E052985223008F47EC03989323010F495
:10068000B8017CC08A859A8989278A87243011F02D
:10069000223031F4231709F06EC06FE971E06EC0AB
:1006A000343039F41D861E861F86188A1C861B86E8
:1006B00004C0323021F484E08987B7015FC02B8504
:1006C0003C858B899C89281B390B3C872B87ED84C3
:1006D000FE840F851889AD88BE88CF88D88CEA142F
:1006E000FB040C051D0540F4EE0CFF1C001F111F40
:1006F000215030403C872B8720E030E040E050E044
:1007000080E090E0A0E0B0E460E070E0EA14FB0478
:100710000C051D0540F0282B392B4A2B5B2BEA18C2
:10072000FB080C091D09B695A79597958795EE0CC2
:10073000FF1C001F111F6F5F7F4F6F31710531F775
:10074000DA01C9018F779070A070B0708034910584
:10075000A105B10561F427FD0AC0E114F10401050A
:10076000110529F0205C3F4F4F4F5F4F20782D87B8
:100770003E874F87588BBE01675F7F4FCB010E943A
:10078000A9046896EAE00C94AB21A8E1B0E0EBEC98
:10079000F3E00C94932169837A838B839C832D836C
:1007A0003E834F83588789E0E82EF12CEC0EFD1E26
:1007B000CE010196B7010E947E058E010F5E1F4F8C
:1007C000CE010596B8010E947E058985823040F0F1
:1007D0008989823028F0C701B8010E94F60501C05E
:1007E0008FEF6896E6E00C94AF21A8E1B0E0EBEF64
:1007F000F3E00C94932169837A838B839C832D830C
:100800003E834F83588789E0E82EF12CEC0EFD1EC5
:10081000CE010196B7010E947E058E010F5E1F4F2B
:10082000CE010596B8010E947E058985823040F090
:100830008989823028F0C701B8010E94F60501C0FD
:100840008FEF6896E6E00C94AF21A8E1B0E0EBE210
:10085000F4E00C94932169837A838B839C832D83AA
:100860003E834F83588789E0E82EF12CEC0EFD1E65
:10087000CE010196B7010E947E058E010F5E1F4FCB
:10088000CE010596B8010E947E058985823040F030
:100890008989823028F0C701B8010E94F60501C09D
:1008A00081E06896E6E00C94AF21ACE0B0E0EBE5C7
:1008B000F4E00C94972169837A838B839C83CE0127
:1008C0000196BE016B5F7F4F0E947E058D81823055
:1008D00061F1823050F1843021F48E81882351F10E
:1008E0002EC02F81388537FD20C06E812F31310514
:1008F0001CF06623F9F023C08EE190E0821B930B7D
:1009000029853A854B855C8504C056954795379572
:1009100027958A95D2F76623B1F05095409530958A
:1009200021953F4F4F4F5F4F0EC020E030E040E039
:1009300050E009C02FEF3FEF4FEF5FE704C020E02A
:1009400030E040E050E8B901CA012C96E2E00C9496
:10095000B321DF92EF92FF920F931F93FC01E4808B
:10096000F58006811781D1808081823048F480E053
:1009700090E0A0E1B0E0E82AF92A0A2B1B2BA5C0E1
:10098000843009F49FC0823021F4EE24FF248701D3
:1009900005C0E114F1040105110519F4E0E0F0E0EF
:1009A00096C0628173819FEF623879070CF05BC05B
:1009B00022E83FEF261B370B2A3131052CF020E0CF
:1009C00030E040E050E02AC0B801A701022E04C088
:1009D00076956795579547950A94D2F781E090E010
:1009E000A0E0B0E004C0880F991FAA1FBB1F2A9582
:1009F000D2F70197A109B1098E219F21A023B1232C
:100A00000097A105B10521F081E090E0A0E0B0E001
:100A10009A01AB01282B392B4A2B5B2BDA01C90138
:100A20008F779070A070B07080349105A105B105EA
:100A300039F427FF09C0205C3F4F4F4F5F4F04C080
:100A4000215C3F4F4F4F5F4FE0E0F0E02030A0E0EF
:100A50003A07A0E04A07A0E45A0710F0E1E0F0E00E
:100A600079018A0127C06038710564F5FB01E158FE
:100A7000FF4FD801C7018F779070A070B07080349D
:100A80009105A105B10539F4E7FE0DC080E490E0C1
:100A9000A0E0B0E004C08FE390E0A0E0B0E0E80E9A
:100AA000F91E0A1F1B1F17FF05C016950795F7941F
:100AB000E794319687E016950795F794E7948A9521
:100AC000D1F705C0EE24FF248701EFEFF0E06E2F91
:100AD000679566276795902F9F77D794DD24D794E5
:100AE0008E2F8695492F462B582F5D29B701CA01B5
:100AF0001F910F91FF90EF90DF900895FC01DB01B3
:100B0000408151812281622F6F7770E0221F22275E
:100B1000221F9381892F880F822B282F30E0991F65
:100B20009927991F11969C93119721153105A9F5C5
:100B3000411551056105710511F482E037C082E865
:100B40009FEF13969C938E9312979A01AB0167E0E7
:100B5000220F331F441F551F6A95D1F783E08C93F2
:100B60000DC0220F331F441F551F12968D919C916B
:100B70001397019713969C938E931297203080E0E1
:100B8000380780E0480780E4580758F314962D93FF
:100B90003D934D935C93179708952F3F310579F45A
:100BA000411551056105710519F484E08C93089590
:100BB00064FF03C081E08C9312C01C9210C02F57B9
:100BC000304013963C932E93129783E08C9387E0EA
:100BD000440F551F661F771F8A95D1F770641496CE
:100BE0004D935D936D937C93179708951F93DC014C
:100BF000FB019C91923008F447C08081823008F458
:100C000043C0943051F411961C91843099F5818140
:100C1000682F70E0611B71093FC0843021F0923071
:100C200031F48230B9F18181882389F12DC0119688
:100C30001C9111978230F1F081811817D9F4129626
:100C40002D913C911397828193818217930794F0A1
:100C500028173907BCF014968D919D910D90BC9189
:100C6000A02D2481358146815781281739074A07ED
:100C70005B0718F4112341F00AC082179307A407F9
:100C8000B50740F4112319F061E070E005C06FEF83
:100C90007FEF02C060E070E0CB011F910895DF9309
:100CA000CF93CDB7DEB7A6E2B0E0E6E2F0E0808118
:100CB00080688C93A6E2B0E0E6E2F0E080818E7F6F
:100CC0008C93A6E2B0E0E6E2F0E0808182608C9353
:100CD000A6E2B0E0E6E2F0E0808184608C93A7E2D7
:100CE000B0E0E7E2F0E0808180648C93A7E2B0E0BE
:100CF000E7E2F0E0808180688C93A7E2B0E0E7E271
:100D0000F0E0808180628C93CF91DF910895DF9332
:100D1000CF9300D00F92CDB7DEB78B83A7E2B0E0C0
:100D2000E7E2F0E08081807E8C93A7E2B0E0E7E22A
:100D3000F0E090818B81892B8C93A6E2B0E0E6E213
:100D4000F0E0808180648C93E6E2F0E0808182951F
:100D50008F70882F90E0817090700097A9F3A6E2C1
:100D6000B0E0E6E2F0E0808180618C93E4E2F0E0C4
:100D700080818295869586958370882F90E09A83EE
:100D80008983E5E2F0E08081882F90E0880F991F49
:100D9000880F991F9C0189819A81822B932B9A83BA
:100DA000898389819A810F900F900F90CF91DF9165
:100DB0000895AF92CF92EF920F93DF93CF93CDB779
:100DC000DEB729970FB6F894DEBF0FBECDBF8A837A
:100DD0006B834C832D830E83EF82C886A98619828C
:100DE0008A81813021F489818160898303C089816E
:100DF0008E7F89838B81813021F489818260898310
:100E000003C089818D7F89838C81813021F4898120
:100E10008460898303C089818B7F89838D81813040
:100E200021F489818860898303C08981877F8983D0
:100E30008E81813021F489818061898303C0898119
:100E40008F7E89838F81813021F4898180628983BB
:100E500003C089818F7D89838885813021F48981D0
:100E60008064898303C089818F7B898389858130F0
:100E700021F489818068898303C089818F77898380
:100E8000898129960FB6F894DEBF0FBECDBFCF91F2
:100E9000DF910F91EF90CF90AF9008958F929F9236
:100EA000AF92CF92EF920F93DF93CF93CDB7DEB790
:100EB0000F2EFAE38F2E9924F02D81E061E041E0BE
:100EC00020E000E0EE24CC24AA240E94D906F401FC
:100ED00080830F2EF7E38F2E9924F02D80E060E0C1
:100EE00040E020E000E0EE24CC24C394AA240E9439
:100EF000D906F40180830F2EF4E38F2E9924F02D70
:100F000081E061E041E021E001E0EE24E394CC24C3
:100F1000C394AA24A3940E94D906F40180830F2EBF
:100F2000F1E38F2E9924F02D81E061E040E020E094
:100F300001E0EE24E394CC24C394AA24A3940E9459
:100F4000D906F4018083CF91DF910F91EF90CF907C
:100F5000AF909F908F900895DF93CF9300D000D0F3
:100F600000D0CDB7DEB789836A834B838981843013
:100F700008F0E4C08A81883008F0DDC08B818823C6
:100F800021F08B81813009F0D4C08981282F30E095
:100F90003E832D838D819E818130910509F443C06C
:100FA0002D813E81223031052CF48D819E81009768
:100FB00071F0BCC02D813E812230310509F45FC043
:100FC0008D819E818330910509F485C0AFC08B81EE
:100FD0008130A1F4AAE3B0E0EAE3F0E08081482F99
:100FE0008A81282F30E081E090E0022E02C0880F35
:100FF000991F0A94E2F7842B8C9398C0AAE3B0E07F
:10100000EAE3F0E08081482F8A81282F30E081E0F8
:1010100090E0022E02C0880F991F0A94E2F7809593
:1010200084238C9383C08B818130A1F4A7E3B0E04B
:10103000E7E3F0E08081482F8A81282F30E081E0CB
:1010400090E0022E02C0880F991F0A94E2F7842BC9
:101050008C936CC0A7E3B0E0E7E3F0E08081482F19
:101060008A81282F30E081E090E0022E02C0880FB4
:10107000991F0A94E2F7809584238C9357C08B8143
:101080008130A1F4A4E3B0E0E4E3F0E08081482FF4
:101090008A81282F30E081E090E0022E02C0880F84
:1010A000991F0A94E2F7842B8C9340C0A4E3B0E02C
:1010B000E4E3F0E08081482F8A81282F30E081E04E
:1010C00090E0022E02C0880F991F0A94E2F78095E3
:1010D00084238C932BC08B818130A1F4A1E3B0E0F9
:1010E000E1E3F0E08081482F8A81282F30E081E021
:1010F00090E0022E02C0880F991F0A94E2F7842B19
:101100008C9314C0A1E3B0E0E1E3F0E08081482FCC
:101110008A81282F30E081E090E0022E02C0880F03
:10112000991F0A94E2F7809584238C9393E09C8323
:1011300007C01C8205C021E02C8302C032E03C8342
:101140008C8126960FB6F894DEBF0FBECDBFCF912F
:10115000DF910895DF93CF9300D000D000D0CDB7BA
:10116000DEB789837B836A838981843008F03DC040
:101170008A819B818F3F910509F0A8F58981282FED
:1011800030E03E832D838D819E8181309105D1F0A9
:101190002D813E81223031052CF48D819E81009776
:1011A00061F01EC02D813E812230310581F08D819C
:1011B0009E818330910581F013C0EAE3F0E08A81DB
:1011C00080830EC0E7E3F0E08A81808309C0E4E316
:1011D000F0E08A81808304C0E1E3F0E08A818083CB
:1011E00093E09C8304C01C8202C022E02C838C818B
:1011F00026960FB6F894DEBF0FBECDBFCF91DF911C
:101200000895DF93CF9300D000D000D0CDB7DEB7E4
:1012100089836A834B838981843008F0E4C08A81A2
:10122000883008F0DDC08B81882321F08B818130EC
:1012300009F0D4C08981282F30E03E832D838D8131
:101240009E818130910509F443C02D813E81223079
:1012500031052CF48D819E81009771F0BCC02D81E9
:101260003E812230310509F45FC08D819E8183303B
:10127000910509F485C0AFC08B818130A1F4ABE347
:10128000B0E0EBE3F0E08081482F8A81282F30E046
:1012900081E090E0022E02C0880F991F0A94E2F7C5
:1012A000842B8C9398C0ABE3B0E0EBE3F0E080815B
:1012B000482F8A81282F30E081E090E0022E02C082
:1012C000880F991F0A94E2F7809584238C9383C03A
:1012D0008B818130A1F4A8E3B0E0E8E3F0E0808105
:1012E000482F8A81282F30E081E090E0022E02C052
:1012F000880F991F0A94E2F7842B8C936CC0A8E3A3
:10130000B0E0E8E3F0E08081482F8A81282F30E0C8
:1013100081E090E0022E02C0880F991F0A94E2F744
:10132000809584238C9357C08B818130A1F4A5E3F1
:10133000B0E0E5E3F0E08081482F8A81282F30E09B
:1013400081E090E0022E02C0880F991F0A94E2F714
:10135000842B8C9340C0A5E3B0E0E5E3F0E080810E
:10136000482F8A81282F30E081E090E0022E02C0D1
:10137000880F991F0A94E2F7809584238C932BC0E1
:101380008B818130A1F4A2E3B0E0E2E3F0E0808160
:10139000482F8A81282F30E081E090E0022E02C0A1
:1013A000880F991F0A94E2F7842B8C9314C0A2E350
:1013B000B0E0E2E3F0E08081482F8A81282F30E01E
:1013C00081E090E0022E02C0880F991F0A94E2F794
:1013D000809584238C9393E09C8307C01C8205C076
:1013E00021E02C8302C032E03C838C8126960FB62C
:1013F000F894DEBF0FBECDBFCF91DF910895DF938C
:10140000CF9300D000D000D0CDB7DEB789837B83E7
:101410006A838A819B818430910508F03DC08A816E
:101420009B818F3F910509F0A8F58981282F30E035
:101430003E832D838D819E8181309105D1F02D8158
:101440003E81223031052CF48D819E81009761F020
:101450001EC02D813E812230310581F08D819E811B
:101460008330910581F013C0EBE3F0E08A81808343
:101470000EC0E8E3F0E08A81808309C0E5E3F0E094
:101480008A81808304C0E2E3F0E08A81808393E074
:101490009C8304C01C8202C022E02C838C8126968F
:1014A0000FB6F894DEBF0FBECDBFCF91DF91089588
:1014B000DF93CF93CDB7DEB728970FB6F894DEBF92
:1014C0000FBECDBF89836A835C834B83898184305F
:1014D00008F078C08A81883008F071C08981282F8F
:1014E00030E03F832E834E815F814130510559F1B9
:1014F0008E819F818230910534F42E813F812115A8
:10150000310569F05BC04E815F814230510579F150
:101510008E819F818330910509F43DC04FC0E9E37E
:10152000F0E08081282F30E08A81882F90E0A901A7
:1015300002C0559547958A95E2F7CA018170EB8103
:10154000FC8180833BC0E6E3F0E08081282F30E01F
:101550008A81882F90E0A90102C0559547958A9508
:10156000E2F7CA018170EB81FC81808327C0E3E34D
:10157000F0E08081282F30E08A81882F90E0A90157
:1015800002C0559547958A95E2F7CA018170EB81B3
:10159000FC81808313C0E0E3F0E08081282F30E0FD
:1015A0008A81882F90E0A90102C0559547958A95B8
:1015B000E2F7CA018170EB81FC81808307C051E0B2
:1015C0005D8302C082E08D839D81988788852896FF
:1015D0000FB6F894DEBF0FBECDBFCF91DF91089557
:1015E0001F920F920FB60F9211242F933F934F9398
:1015F0005F936F937F938F939F93AF93BF93EF937B
:10160000FF93DF93CF93CDB7DEB7E091AA01F091BE
:10161000AB010995CF91DF91FF91EF91BF91AF9110
:101620009F918F917F916F915F914F913F912F91FA
:101630000F900FBE0F901F9018951F920F920FB62C
:101640000F9211242F933F934F935F936F937F9348
:101650008F939F93AF93BF93EF93FF93DF93CF93BA
:10166000CDB7DEB7E091AC01F091AD010995CF9116
:10167000DF91FF91EF91BF91AF919F918F917F91FA
:101680006F915F914F913F912F910F900FBE0F90EF
:101690001F9018951F920F920FB60F9211242F933F
:1016A0003F934F935F936F937F938F939F93AF93EA
:1016B000BF93EF93FF93DF93CF93CDB7DEB7E09166
:1016C000AE01F091AF010995CF91DF91FF91EF91BC
:1016D000BF91AF919F918F917F916F915F914F914A
:1016E0003F912F910F900FBE0F901F901895DF9391
:1016F000CF9300D00F92CDB7DEB789838981282F91
:1017000030E03B832A838A819B818130910589F077
:101710002A813B8122303105A1F08A819B8100978B
:10172000B9F4ABE5B0E0EBE5F0E0808180648C9348
:101730000FC0ABE5B0E0EBE5F0E0808180688C9312
:1017400007C0ABE5B0E0EBE5F0E0808180628C9310
:101750000F900F900F90CF91DF910895DF93CF936B
:1017600000D00F92CDB7DEB789838981282F30E072
:101770003B832A838A819B818130910589F02A816C
:101780003B8122303105A1F08A819B810097B9F419
:10179000ABE5B0E0EBE5F0E080818F7B8C930FC090
:1017A000ABE5B0E0EBE5F0E080818F778C9307C08C
:1017B000ABE5B0E0EBE5F0E080818F7D8C930F909E
:1017C0000F900F90CF91DF910895DF93CF9300D0CA
:1017D00000D0CDB7DEB789836A838981282F30E0B6
:1017E0003C832B838B819C8181309105C9F12B81B6
:1017F0003C812230310509F461C08B819C810097C6
:1018000009F06EC08A81882F90E0817090708823E3
:1018100041F0A5E5B0E0E5E5F0E0808181608C93E2
:1018200007C0A5E5B0E0E5E5F0E080818E7F8C9310
:101830008A818695882F90E081709070882341F08E
:10184000A5E5B0E0E5E5F0E0808182608C9348C0DA
:10185000A5E5B0E0E5E5F0E080818D7F8C9340C0A8
:101860008A81882F90E081709070882341F0A5E5EF
:10187000B0E0E5E5F0E0808184608C9307C0A5E5E9
:10188000B0E0E5E5F0E080818B7F8C938A818695DE
:10189000882F90E081709070882341F0A5E5B0E03A
:1018A000E5E5F0E0808188608C931AC0A5E5B0E0A2
:1018B000E5E5F0E08081877F8C9312C08A818130DA
:1018C00041F4A4E5B0E0E4E5F0E0808180648C932D
:1018D00007C0A4E5B0E0E4E5F0E080818F7B8C9365
:1018E0000F900F900F900F90CF91DF910895DF939D
:1018F000CF930F92CDB7DEB789838981813041F4D0
:10190000AFE5B0E0EFE5F0E0808180688C9307C040
:10191000AFE5B0E0EFE5F0E080818F778C930F903A
:10192000CF91DF910895DF93CF9300D00F92CDB781
:10193000DEB789837B836A838981882F90E0880F53
:10194000991FFC01E655FE4F8A819B81918380831C
:101950000F900F900F90CF91DF9108950F931F93E9
:10196000DF93CF93CDB7DEB7CC54D0400FB6F89409
:10197000DEBF0FBECDBFFE01E75BFF4F80E090E012
:10198000ACE0B2E480839183A283B3838E010B5BCE
:101990001F4FFE01E75BFF4F608171818281938160
:1019A00020E030E04AEF54E40E941F02DC01CB014A
:1019B000F80180839183A283B383FE01EB5BFF4F29
:1019C000608171818281938120E030E040E85FE3B3
:1019D0000E942504882344F4FE01ED5BFF4F81E063
:1019E00090E09183808364C0FE01EB5BFF4F6081D8
:1019F00071818281938120E03FEF4FE757E40E949D
:101A0000C50318160CF043C0FE01E75BFF4F608171
:101A100071818281938120E030E040E251E40E94B4
:101A20001F02DC01CB018E010D5B1F4FBC01CD01FC
:101A30000E944900DC01CB01F801918380831FC023
:101A4000FE01EF5BFF4F88EC90E091838083FE0105
:101A5000EF5BFF4F808191810197F1F7FE01EF5B12
:101A6000FF4F91838083DE01AD5BBF4FFE01ED5BD5
:101A7000FF4F80819181019711969C938E93FE0177
:101A8000ED5BFF4F808191810097D1F624C08E01DC
:101A90000D5B1F4FFE01EB5BFF4F60817181828107
:101AA00093810E944900DC01CB01F801918380837E
:101AB000FE01ED5BFF4F80819181FE01FF969183D6
:101AC0008083FE01FF96808191810197F1F7FE01ED
:101AD000FF969183808388E30E94710F80E090E0FD
:101AE000A0E2B2E48BAF9CAFADAFBEAF6BAD7CAD4F
:101AF0008DAD9EAD2BEA3AEA4AE250E40E941F0205
:101B0000DC01CB018FAB98AFA9AFBAAF6FA978ADAD
:101B100089AD9AAD20E030E040E85FE30E94250403
:101B200088231CF481E08EAB91C06FA978AD89AD9C
:101B30009AAD20E030E04FE753E40E94C503181649
:101B40000CF07BC06BAD7CAD8DAD9EAD20E030E088
:101B50004AE754E40E941903DC01CB018AAB9BAB3A
:101B6000ACABBDAB6AA97BA98CA99DA920E030E0F4
:101B70004AEF54E40E941F02DC01CB018EA79FA70D
:101B8000A8ABB9AB6EA57FA588A999A920E030E0E4
:101B900040E85FE30E94250488232CF481E090E074
:101BA0009DA78CA73FC06EA57FA588A999A920E015
:101BB0003FEF4FE757E40E94C50318164CF56AA99A
:101BC0007BA98CA99DA920E030E040E251E40E946D
:101BD0001F02DC01CB01BC01CD010E944900DC01E8
:101BE000CB019DA78CA70FC088EC90E09BA78AA78C
:101BF0008AA59BA50197F1F79BA78AA78CA59DA510
:101C000001979DA78CA78CA59DA5009769F724C077
:101C10006EA57FA588A999A90E944900DC01CB0186
:101C20009DA78CA78CA59DA599A788A788A599A5F0
:101C30000197F1F799A788A70FC06FA978AD89AD73
:101C40009AAD0E944900DC01CB018EAB8EA98FA317
:101C50008FA18A95F1F78FA38CE00E94710F80E02D
:101C600090E0A0E2B2E48BA39CA3ADA3BEA36BA1C2
:101C70007CA18DA19EA12BEA3AEA4AE250E40E949F
:101C80001F02DC01CB018F8F98A3A9A3BAA36F8D8C
:101C900078A189A19AA120E030E040E85FE30E94AA
:101CA000250488231CF481E08E8F91C06F8D78A16C
:101CB00089A19AA120E030E04FE753E40E94C503D8
:101CC00018160CF07BC06BA17CA18DA19EA120E019
:101CD00030E04AE754E40E941903DC01CB018A8F0B
:101CE0009B8FAC8FBD8F6A8D7B8D8C8D9D8D20E001
:101CF00030E04AEF54E40E941F02DC01CB018E8BDE
:101D00009F8BA88FB98F6E897F89888D998D20E0F0
:101D100030E040E85FE30E94250488232CF481E052
:101D200090E09D8B8C8B3FC06E897F89888D998DCB
:101D300020E03FEF4FE757E40E94C50318164CF52B
:101D40006A8D7B8D8C8D9D8D20E030E040E251E4EA
:101D50000E941F02DC01CB01BC01CD010E944900A1
:101D6000DC01CB019D8B8C8B0FC088EC90E09B8BB2
:101D70008A8B8A899B890197F1F79B8B8A8B8C8947
:101D80009D8901979D8B8C8B8C899D89009769F724
:101D900024C06E897F89888D998D0E944900DC015D
:101DA000CB019D8B8C8B8C899D89998B888B8889A5
:101DB00099890197F1F7998B888B0FC06F8D78A166
:101DC00089A19AA10E944900DC01CB018E8F8E8DE2
:101DD0008F878F858A95F1F78F8781E00E94710F39
:101DE00080E090E0A0E0B0E48B879C87AD87BE8761
:101DF0006B857C858D859E8520E030E04AEF54E43C
:101E00000E941F02DC01CB018F839887A987BA87C4
:101E10006F81788589859A8520E030E040E85FE32E
:101E20000E94250488232CF481E090E09E838D831A
:101E30003FC06F81788589859A8520E03FEF4FE725
:101E400057E40E94C50318164CF56B857C858D857B
:101E50009E8520E030E040E251E40E941F02DC0158
:101E6000CB01BC01CD010E944900DC01CB019E8366
:101E70008D830FC088EC90E09C838B838B819C8149
:101E80000197F1F79C838B838D819E8101979E83BF
:101E90008D838D819E81009769F714C06F8178854D
:101EA00089859A850E944900DC01CB019E838D8340
:101EB0008D819E819A83898389819A810197F1F727
:101EC0009A83898386E00E94710FC45BDF4F0FB64F
:101ED000F894DEBF0FBECDBFCF91DF911F910F9160
:101EE0000895DF93CF930F92CDB7DEB7898380E05B
:101EF00060E040E00E94010989810E94830F0F90F9
:101F0000CF91DF910895DF93CF93CDB7DEB7699777
:101F10000FB6F894DEBF0FBECDBF898F80E061E0C1
:101F200040E00E940109898D982F917082E060E065
:101F3000492F0E940109898D8695982F917082E022
:101F400061E0492F0E940109898D86958695982F19
:101F5000917082E062E0492F0E940109898D869587
:101F600086958695982F917082E063E0492F0E94B4
:101F70000109898D82958F70982F917082E064E0BD
:101F8000492F0E940109898D829586958770982F27
:101F9000917082E065E0492F0E940109898D829548
:101FA000869586958370982F917082E066E0492F20
:101FB0000E940109898D982F991F9927991F82E006
:101FC00067E0492F0E94010980E062E041E00E9441
:101FD000010980E090E0A0E8BFE38D8B9E8BAF8B82
:101FE000B88F6D897E898F89988D2BEA3AEA4AE20B
:101FF00050E40E941F02DC01CB01898B9A8BAB8BD2
:10200000BC8B69897A898B899C8920E030E040E823
:102010005FE30E94250488231CF481E0888B91C033
:1020200069897A898B899C8920E030E04FE753E405
:102030000E94C50318160CF07BC06D897E898F89BC
:10204000988D20E030E04AE754E40E941903DC0157
:10205000CB018C879D87AE87BF876C857D858E85FC
:102060009F8520E030E04AEF54E40E941F02DC012B
:10207000CB0188879987AA87BB87688579858A85F8
:102080009B8520E030E040E85FE30E942504882340
:102090002CF481E090E09F838E833FC06885798532
:1020A0008A859B8520E03FEF4FE757E40E94C503F8
:1020B00018164CF56C857D858E859F8520E030E077
:1020C00040E251E40E941F02DC01CB01BC01CD01C2
:1020D0000E944900DC01CB019F838E830FC088ECF6
:1020E00090E09D838C838C819D810197F1F79D8386
:1020F0008C838E819F8101979F838E838E819F81A8
:10210000009769F724C0688579858A859B850E9438
:102110004900DC01CB019F838E838E819F819B834D
:102120008A838A819B810197F1F79B838A830FC001
:1021300069897A898B899C890E944900DC01CB01DD
:10214000888B8889898389818A95F1F7898380E0E2
:1021500062E040E00E94010969960FB6F894DEBF84
:102160000FBECDBFCF91DF910895DF93CF930F9234
:10217000CDB7DEB7898380E060E041E00E940109CD
:1021800089810E94830F0F90CF91DF910895DF9393
:10219000CF9300D0CDB7DEB79A8389830AC0E98197
:1021A000FA8180810E94B51089819A8101969A8373
:1021B0008983E981FA818081882389F70F900F90C4
:1021C000CF91DF910895DF93CF93CDB7DEB76A97B4
:1021D0000FB6F894DEBF0FBECDBF6F8B788F898F9F
:1021E0009A8F19828F89988DA98DBA8D0097A10534
:1021F000B105F1F58981282F30E0CE010396FC016D
:10220000E20FF31F80E3808389818F5F898330C071
:102210008F89988DA98DBA8D2AE030E040E050E09A
:10222000BC01CD010E946521DC01CB018A8389813B
:10223000282F30E08A81482F405DCE010396FC01B3
:10224000E20FF31F408389818F5F89838F89988D87
:10225000A98DBA8D2AE030E040E050E0BC01CD010C
:102260000E946521DA01C9018F8B988FA98FBA8FDF
:102270008F89988DA98DBA8D0097A105B10541F67A
:102280008981282F30E0CE010396FC01E20FF31F75
:102290001082CE01039669810E945B11CE010396E4
:1022A0000E94C7106A960FB6F894DEBF0FBECDBF6E
:1022B000CF91DF910895DF93CF93CDB7DEB7299704
:1022C0000FB6F894DEBF0FBECDBF98878F836987A6
:1022D0001E82898581508D8333C08E81282F30E006
:1022E0008F819885FC01E20FF31F8081882F90E099
:1022F000A0E0B0E089839A83AB83BC838E81282FD2
:1023000030E08F819885DC01A20FB31F8D81282FCB
:1023100030E08F819885FC01E20FF31F80818C9360
:102320008D81282F30E08F819885FC01E20FF31F0B
:10233000898180838E818F5F8E838D8181508D8393
:102340009E818D81981748F229960FB6F894DEBFCA
:102350000FBECDBFCF91DF910895DF93CF9300D013
:102360000F92CDB7DEB78A836B838A81882F90E086
:102370000024969587950794969587950794982FAE
:10238000802D982F8B81890F89838981806889832B
:1023900089810E94710F0F900F900F90CF91DF9164
:1023A0000895DF93CF9300D000D0CDB7DEB78A83F6
:1023B0007C836B838A810E94710F19820DC0EB812F
:1023C000FC8180810E94B5108B819C8101969C8349
:1023D0008B8389818F5F89838981883080F30F9017
:1023E0000F900F900F90CF91DF910895DF93CF93CF
:1023F000CDB7DEB72E970FB6F894DEBF0FBECDBFB8
:1024000081E00E94710F80E090E0A0E0B0E48B8753
:102410009C87AD87BE876B857C858D859E8520E0FA
:1024200030E04AEF54E40E941F02DC01CB018F83AD
:102430009887A987BA876F81788589859A8520E0F2
:1024400030E040E85FE30E94250488232CF481E01B
:1024500090E09E838D833FC06F81788589859A85C2
:1024600020E03FEF4FE757E40E94C50318164CF5F4
:102470006B857C858D859E8520E030E040E251E4CF
:102480000E941F02DC01CB01BC01CD010E9449006A
:10249000DC01CB019E838D830FC088EC90E09C8390
:1024A0008B838B819C810197F1F79C838B838D813A
:1024B0009E8101979E838D838D819E81009769F710
:1024C00014C06F81788589859A850E944900DC0156
:1024D000CB019E838D838D819E819A83898389819F
:1024E0009A810197F1F79A8389832E960FB6F89413
:1024F000DEBF0FBECDBFCF91DF910895DF93CF93A5
:10250000CDB7DEB762970FB6F894DEBF0FBECDBF72
:102510009A8B898B89899A899E012F5F3F4FB901D8
:102520004AE050E00E94BE21CE0101960E94C710F1
:1025300062960FB6F894DEBF0FBECDBFCF91DF918C
:102540000895DF93CF93CDB7DEB781E064E040E03C
:102550000E94AC0781E065E040E00E94AC0781E0AA
:1025600066E041E00E94AC0781E067E040E00E9445
:10257000AC07ADE2B0E0EDE2F0E080818F7D8C93BE
:10258000ADE2B0E0EDE2F0E080818F7E8C93ADE2D1
:10259000B0E0EDE2F0E0808188608C93ADE2B0E0E5
:1025A000EDE2F0E0808184608C93ADE2B0E0EDE29A
:1025B000F0E0808182608C93ADE2B0E0EDE2F0E08B
:1025C00080818E7F8C93AEE2B0E0EEE2F0E080811D
:1025D0008E7F8C93ADE2B0E0EDE2F0E0808180642C
:1025E0008C93CF91DF910895DF93CF9300D000D0EB
:1025F000CDB7DEB78A837C836B8381E064E040E003
:102600000E94010919828B819C81009789F0EFE279
:10261000F0E08A818083EEE2F0E080818823DCF7BD
:10262000EFE2F0E08081EB81FC81808381E08983AF
:1026300081E064E041E00E94010989810F900F90E0
:102640000F900F90CF91DF910895DF93CF9300D03B
:10265000CDB7DEB78A8380E067E041E00E94AC0737
:1026600080E067E041E00E940109EFE2F0E08A814A
:102670008083EEE2F0E080818823DCF7EFE2F0E097
:10268000808189830F900F90CF91DF910895DF9320
:10269000CF9300D000D0CDB7DEB78A837C836B8325
:1026A000EFE2F0E08A81808319828B819C81009720
:1026B00069F0EEE2F0E080818823DCF7EFE2F0E001
:1026C0008081EB81FC81808381E0898389810F9007
:1026D0000F900F900F90CF91DF910895DF93CF93DC
:1026E000CDB7DEB76C970FB6F894DEBF0FBECDBF87
:1026F0009091A80181E089278093A8018091A80189
:10270000882309F088C00E94F61183E061E040E070
:102710000E94010980E690E00E94C71081E060E01D
:102720000E94AD1180E790E00E94C71080E090E029
:10273000AAE7B4E4898F9A8FAB8FBC8F698D7A8DAD
:102740008B8D9C8D20E030E04AEF54E40E941F0204
:10275000DC01CB018D8B9E8BAF8BB88F6D897E8911
:102760008F89988D20E030E040E85FE30E942504E7
:1027700088232CF481E090E09C8B8B8B3FC06D898B
:102780007E898F89988D20E03FEF4FE757E40E94C4
:10279000C50318164CF5698D7A8D8B8D9C8D20E0C4
:1027A00030E040E251E40E941F02DC01CB01BC0199
:1027B000CD010E944900DC01CB019C8B8B8B0FC0AB
:1027C00088EC90E09A8B898B89899A890197F1F737
:1027D0009A8B898B8B899C8901979C8B8B8B8B899E
:1027E0009C89009769F714C06D897E898F89988DBF
:1027F0000E944900DC01CB019C8B8B8B8B899C89CF
:10280000988B8F878F8598890197F1F7988B8F87A1
:102810000E94F61187C00E94F61180E690E00E94A7
:10282000C71081E060E00E94AD1181E890E00E9455
:10283000C71083E061E041E00E94010980E090E080
:10284000AAE7B4E48B879C87AD87BE876B857C85C0
:102850008D859E8520E030E04AEF54E40E941F02FF
:10286000DC01CB018F839887A987BA876F81788530
:1028700089859A8520E030E040E85FE30E942504E6
:1028800088232CF481E090E09E838D833FC06F818C
:10289000788589859A8520E03FEF4FE757E40E94CD
:1028A000C50318164CF56B857C858D859E8520E0CB
:1028B00030E040E251E40E941F02DC01CB01BC0188
:1028C000CD010E944900DC01CB019E838D830FC0A6
:1028D00088EC90E09C838B838B819C810197F1F73E
:1028E0009C838B838D819E8101979E838D838D81B7
:1028F0009E81009769F714C06F81788589859A85D4
:102900000E944900DC01CB019E838D838D819E81D5
:102910009A83898389819A810197F1F79A838983C0
:102920000E94F6116C960FB6F894DEBF0FBECDBFB5
:10293000CF91DF9108950F931F93DF93CF93CDB77E
:10294000DEB7C35FD0400FB6F894DEBF0FBECDBF79
:102950000E944E070E94AE0C0E94A1120E944F06D8
:1029600080E062E00E94E50B80E00E94770B81E04E
:102970000E94770C2EE633E180E0B9010E94930CAF
:102980009E012F503F4F8FEF90E0B9010E944713F7
:10299000FE01EF50FF4F8081282F30E0CE50DF4FF7
:1029A00039832883C25FD040CE50DF4F8881998120
:1029B000C25FD0408630910509F458C4CE50DF4F35
:1029C000E881F981C25FD040E730F105ECF5CE50E7
:1029D000DF4F28813981C25FD0402330310509F4AF
:1029E00002C2CE50DF4F88819981C25FD0408430CF
:1029F0009105ACF4CE50DF4FE881F981C25FD04041
:102A0000E130F10509F46DC0CE50DF4F28813981E6
:102A1000C25FD0402230310509F424C1B1CFCE507D
:102A2000DF4F88819981C25FD0408430910509F4DD
:102A30009BC2CE50DF4FE881F981C25FD040E530C4
:102A4000F10509F452C39CCFCE50DF4F2881398164
:102A5000C25FD0402E31310511F40C944F1FCE507F
:102A6000DF4F88819981C25FD0408F319105BCF4DE
:102A7000CE50DF4FE881F981C25FD040EA30F105E6
:102A800011F40C94EB1DCE50DF4F28813981C25FC9
:102A9000D0402431310511F40C94B51E71CFCE50C5
:102AA000DF4F88819981C25FD0408233910511F454
:102AB0000C945D20CE50DF4FE881F981C25FD04099
:102AC000EC33F10511F40C94DC20CE50DF4F28815B
:102AD0003981C25FD0402832310511F40C94D61FE1
:102AE0004FCF83E064E041E00E9401090E94F611AB
:102AF00081E990E00E94C710FE01E551FF4F80E0A0
:102B000090E0AAE7B4E480839183A283B3838E012B
:102B100009511F4FFE01E551FF4F60817181828194
:102B2000938120E030E04AEF54E40E941F02DC0170
:102B3000CB01F80180839183A283B383FE01E95125
:102B4000FF4F608171818281938120E030E040E815
:102B50005FE30E942504882344F4FE01EB51FF4FFC
:102B600081E090E09183808364C0FE01E951FF4FD2
:102B7000608171818281938120E03FEF4FE757E4CC
:102B80000E94C50318160CF043C0FE01E551FF4F2B
:102B9000608171818281938120E030E040E251E4E4
:102BA0000E941F02DC01CB018E010B511F4FBC01A3
:102BB000CD010E944900DC01CB01F80191838083A3
:102BC0001FC0FE01ED51FF4F88EC90E091838083A0
:102BD000FE01ED51FF4F808191810197F1F7FE01D8
:102BE000ED51FF4F91838083DE01AB51BF4FFE015A
:102BF000EB51FF4F80819181019711969C938E93A9
:102C0000FE01EB51FF4F808191810097D1F627C0E3
:102C10008E010B511F4FFE01E951FF4F6081718101
:102C2000828193810E944900DC01CB01F8019183EC
:102C30008083DE01AF51BF4FFE01EB51FF4F80811A
:102C400091818D939C93FE01EF51FF4F8081918183
:102C50000197F1F7FE01EF51FF4F918380830E94AE
:102C6000F6118ECE83E065E041E00E9401090E94EA
:102C7000F61181EA90E00E94C710FE01E352FF4F77
:102C800080E090E0AAE7B4E480839183A283B383D9
:102C90008E0107521F4FFE01E352FF4F6081718189
:102CA0008281938120E030E04AEF54E40E941F02C9
:102CB000DC01CB01F80180839183A283B383FE0101
:102CC000E752FF4F608171818281938120E030E083
:102CD00040E85FE30E942504882344F4FE01E952A2
:102CE000FF4F81E090E09183808364C0FE01E75252
:102CF000FF4F608171818281938120E03FEF4FE738
:102D000057E40E94C50318160CF043C0FE01E352BD
:102D1000FF4F608171818281938120E030E040E249
:102D200051E40E941F02DC01CB018E0109521F4FAA
:102D3000BC01CD010E944900DC01CB01F801918367
:102D400080831FC0FE01EB52FF4F88EC90E091831F
:102D50008083FE01EB52FF4F808191810197F1F753
:102D6000FE01EB52FF4F91838083DE01A952BF4FDA
:102D7000FE01E952FF4F80819181019711969C934A
:102D80008E93FE01E952FF4F808191810097D1F629
:102D900027C08E0109521F4FFE01E752FF4F60818D
:102DA0007181828193810E944900DC01CB01F8018D
:102DB00091838083DE01AD52BF4FFE01E952FF4F88
:102DC000808191818D939C93FE01ED52FF4F808114
:102DD00091810197F1F7FE01ED52FF4F91838083BE
:102DE0000E94F611CDCD83E066E041E00E9401092A
:102DF0000E94F61181EB90E00E94C710FE01E153A2
:102E0000FF4F80E090E0AAE7B4E480839183A2833F
:102E1000B3838E0105531F4FFE01E153FF4F6081C5
:102E200071818281938120E030E04AEF54E40E9476
:102E30001F02DC01CB01F80180839183A283B3835D
:102E4000FE01E553FF4F608171818281938120E013
:102E500030E040E85FE30E942504882344F4FE014B
:102E6000E753FF4F81E090E09183808364C0FE01CF
:102E7000E553FF4F608171818281938120E03FEFB4
:102E80004FE757E40E94C50318160CF043C0FE013B
:102E9000E153FF4F608171818281938120E030E0B6
:102EA00040E251E40E941F02DC01CB018E01075376
:102EB0001F4FBC01CD010E944900DC01CB01F8018C
:102EC000918380831FC0FE01E953FF4F88EC90E09F
:102ED00091838083FE01E953FF4F808191810197A7
:102EE000F1F7FE01E953FF4F91838083DE01A75381
:102EF000BF4FFE01E753FF4F8081918101971196EB
:102F00009C938E93FE01E753FF4F80819181009740
:102F1000D1F627C08E0107531F4FFE01E553FF4F27
:102F200060817181828193810E944900DC01CB0123
:102F3000F80191838083DE01AB53BF4FFE01E7535D
:102F4000FF4F808191818D939C93FE01EB53FF4F46
:102F5000808191810197F1F7FE01EB53FF4F91833F
:102F600080830E94F6110CCD83E067E041E00E946F
:102F700001090E94F61181EC90E00E94C710FE0149
:102F8000EF53FF4F80E090E0AAE7B4E480839183A1
:102F9000A283B3838E0103541F4FFE01EF53FF4FF3
:102FA000608171818281938120E030E04AEF54E4B6
:102FB0000E941F02DC01CB01F80180839183A28370
:102FC000B383FE01E354FF4F60817181828193815D
:102FD00020E030E040E85FE30E942504882344F4C9
:102FE000FE01E554FF4F81E090E09183808364C04F
:102FF000FE01E354FF4F608171818281938120E063
:103000003FEF4FE757E40E94C50318160CF043C08A
:10301000FE01EF53FF4F608171818281938120E037
:1030200030E040E251E40E941F02DC01CB018E013E
:1030300005541F4FBC01CD010E944900DC01CB01AA
:10304000F801918380831FC0FE01E754FF4F88EC95
:1030500090E091838083FE01E754FF4F808191814E
:103060000197F1F7FE01E754FF4F91838083DE0162
:10307000A554BF4FFE01E554FF4F80819181019718
:1030800011969C938E93FE01E554FF4F80819181B0
:103090000097D1F627C08E0105541F4FFE01E3545F
:1030A000FF4F60817181828193810E944900DC0120
:1030B000CB01F80191838083DE01A954BF4FFE014B
:1030C000E554FF4F808191818D939C93FE01E954DB
:1030D000FF4F808191810197F1F7FE01E954FF4F85
:1030E000918380830E94F6114BCC83E060E041E045
:1030F0000E9401090E94F61181ED90E00E94C71024
:10310000FE01ED54FF4F80E090E0AAE7B4E4808335
:103110009183A283B3838E0101551F4FFE01ED54AD
:10312000FF4F608171818281938120E030E04AEF1E
:1031300054E40E941F02DC01CB01F80180839183DB
:10314000A283B383FE01E155FF4F608171818281CB
:10315000938120E030E040E85FE30E94250488236B
:1031600044F4FE01E355FF4F81E090E091838083BA
:1031700064C0FE01E155FF4F6081718182819381BE
:1031800020E03FEF4FE757E40E94C50318160CF00C
:1031900043C0FE01ED54FF4F6081718182819381B4
:1031A00020E030E040E251E40E941F02DC01CB014C
:1031B0008E0103551F4FBC01CD010E944900DC0167
:1031C000CB01F801918380831FC0FE01E555FF4FBD
:1031D00088EC90E091838083FE01E555FF4F80816C
:1031E00091810197F1F7FE01E555FF4F91838083AF
:1031F000DE01A355BF4FFE01E355FF4F8081918152
:10320000019711969C938E93FE01E355FF4F8081A9
:1032100091810097D1F627C08E0103551F4FFE0103
:10322000E155FF4F60817181828193810E94490045
:10323000DC01CB01F80191838083DE01A755BF4FEC
:10324000FE01E355FF4F808191818D939C93FE0198
:10325000E755FF4F808191810197F1F7FE01E75516
:10326000FF4F918380830E94F6118ACB83E00E94F6
:103270008706FE01E151FF4F9695879596958795B4
:10328000918380830E94F6118EED90E00E94C7101A
:10329000FE01EB55FF4F80E090E0AAEFB3E480839E
:1032A0009183A283B3838E010F551F4FFE01EB550F
:1032B000FF4F608171818281938120E030E04AEF8D
:1032C00054E40E941F02DC01CB01F801808391834A
:1032D000A283B383FE01EF55FF4F6081718182812C
:1032E000938120E030E040E85FE30E9425048823DA
:1032F00044F4FE01E156FF4F81E090E0918380832A
:1033000064C0FE01EF55FF4F60817181828193811E
:1033100020E03FEF4FE757E40E94C50318160CF07A
:1033200043C0FE01EB55FF4F608171818281938123
:1033300020E030E040E251E40E941F02DC01CB01BA
:103340008E0101561F4FBC01CD010E944900DC01D6
:10335000CB01F801918380831FC0FE01E356FF4F2C
:1033600088EC90E091838083FE01E356FF4F8081DB
:1033700091810197F1F7FE01E356FF4F918380831E
:10338000DE01A156BF4FFE01E156FF4F80819181C2
:10339000019711969C938E93FE01E156FF4F808119
:1033A00091810097D1F627C08E0101561F4FFE0173
:1033B000EF55FF4F60817181828193810E944900A6
:1033C000DC01CB01F80191838083DE01A556BF4F5C
:1033D000FE01E156FF4F808191818D939C93FE0108
:1033E000E556FF4F808191810197F1F7FE01E55687
:1033F000FF4F918380830E94F6118AEE90E00E9435
:10340000C710FE01E956FF4F80E090E0AAEFB3E459
:1034100080839183A283B3838E010D561F4FFE01DB
:10342000E956FF4F608171818281938120E030E015
:103430004AEF54E40E941F02DC01CB01F8018083B3
:103440009183A283B383FE01ED56FF4F60817181AA
:103450008281938120E030E040E85FE30E94250410
:10346000882344F4FE01EF56FF4F81E090E0918302
:10347000808364C0FE01ED56FF4F608171818281BF
:10348000938120E03FEF4FE757E40E94C5031816F1
:103490000CF043C0FE01E956FF4F608171818281CB
:1034A000938120E030E040E251E40E941F02DC0101
:1034B000CB018E010F561F4FBC01CD010E94490068
:1034C000DC01CB01F801918380831FC0FE01E1572D
:1034D000FF4F88EC90E091838083FE01E157FF4F1E
:1034E000808191810197F1F7FE01E157FF4F9183B0
:1034F0008083DE01AF56BF4FFE01EF56FF4F808144
:103500009181019711969C938E93FE01EF56FF4F88
:10351000808191810097D1F627C08E010F561F4FF1
:10352000FE01ED56FF4F60817181828193810E947F
:103530004900DC01CB01F80191838083DE01A357B0
:10354000BF4FFE01EF56FF4F808191818D939C9379
:10355000FE01E357FF4F808191810197F1F7FE0152
:10356000E357FF4F918380830E94F61187EF90E02D
:103570000E94C710FE01E757FF4F80E090E0AAEFDE
:10358000B3E480839183A283B3838E010B571F4FD3
:10359000FE01E757FF4F608171818281938120E0B6
:1035A00030E04AEF54E40E941F02DC01CB01F80135
:1035B00080839183A283B383FE01EB57FF4F608129
:1035C00071818281938120E030E040E85FE30E94D6
:1035D0002504882344F4FE01ED57FF4F81E090E07D
:1035E0009183808364C0FE01EB57FF4F608171813E
:1035F0008281938120E03FEF4FE757E40E94C503AB
:1036000018160CF043C0FE01E757FF4F608171812F
:103610008281938120E030E040E251E40E941F0269
:10362000DC01CB018E010D571F4FBC01CD010E9463
:103630004900DC01CB01F801918380831FC0FE01AA
:10364000EF57FF4F88EC90E091838083FE01EF57A6
:10365000FF4F808191810197F1F7FE01EF57FF4FF6
:1036600091838083DE01AD57BF4FFE01ED57FF4FC1
:1036700080819181019711969C938E93FE01ED5765
:10368000FF4F808191810097D1F627C08E010D57A1
:103690001F4FFE01EB57FF4F608171818281938143
:1036A0000E944900DC01CB01F80191838083DE0197
:1036B000A158BF4FFE01ED57FF4F808191818D933F
:1036C0009C93FE01E158FF4F808191810197F1F7B2
:1036D000FE01E158FF4F918380830E94F61185E03F
:1036E00091E00E94C7108091A701882F90E0A0E090
:1036F000B0E0BC01CD010E94E31081E060E00E94D7
:10370000AD1183E191E00E94C710FE01E151FF4F2E
:1037100080819181CC01A0E0B0E0BC01CD010E948C
:10372000E310FE01E558FF4F80E090E0AAE7B4E423
:1037300080839183A283B3838E0109581F4FFE01BA
:10374000E558FF4F608171818281938120E030E0F4
:103750004AEF54E40E941F02DC01CB01F801808390
:103760009183A283B383FE01E958FF4F6081718189
:103770008281938120E030E040E85FE30E942504ED
:10378000882344F4FE01EB58FF4F81E090E09183E1
:10379000808364C0FE01E958FF4F6081718182819E
:1037A000938120E03FEF4FE757E40E94C5031816CE
:1037B0000CF043C0FE01E558FF4F608171818281AA
:1037C000938120E030E040E251E40E941F02DC01DE
:1037D000CB018E010B581F4FBC01CD010E94490047
:1037E000DC01CB01F801918380831FC0FE01ED58FD
:1037F000FF4F88EC90E091838083FE01ED58FF4FEE
:10380000808191810197F1F7FE01ED58FF4F91837F
:103810008083DE01AB58BF4FFE01EB58FF4F808124
:103820009181019711969C938E93FE01EB58FF4F67
:10383000808191810097D1F628C08E010B581F4FCF
:10384000FE01E958FF4F60817181828193810E945E
:103850004900DC01CB01F80191838083DE01AF5880
:10386000BF4FFE01EB58FF4F8081918111969C93D1
:103870008E93FE01EF58FF4F808191810197F1F700
:10388000FE01EF58FF4F918380838091A701282F7D
:1038900030E0FE01E151FF4F808191812817390707
:1038A00008F0CAC00E94F61180E690E00E94C7109E
:1038B00081E060E00E94AD1181E890E00E94C710B5
:1038C00083E061E041E00E940109FE01E359FF4FFE
:1038D00080E090E0AAE7B4E480839183A283B3837D
:1038E0008E0107591F4FFE01E359FF4F608171811F
:1038F0008281938120E030E04AEF54E40E941F026D
:10390000DC01CB01F80180839183A283B383FE01A4
:10391000E759FF4F608171818281938120E030E01F
:1039200040E85FE30E942504882344F4FE01E9593E
:10393000FF4F81E090E09183808364C0FE01E759EE
:10394000FF4F608171818281938120E03FEF4FE7DB
:1039500057E40E94C50318160CF043C0FE01E3595A
:10396000FF4F608171818281938120E030E040E2ED
:1039700051E40E941F02DC01CB018E0109591F4F47
:10398000BC01CD010E944900DC01CB01F80191830B
:1039900080831FC0FE01EB59FF4F88EC90E09183BC
:1039A0008083FE01EB59FF4F808191810197F1F7F0
:1039B000FE01EB59FF4F91838083DE01A959BF4F70
:1039C000FE01E959FF4F80819181019711969C93E7
:1039D0008E93FE01E959FF4F808191810097D1F6C6
:1039E00027C08E0109591F4FFE01E759FF4F608123
:1039F0007181828193810E944900DC01CB01F80131
:103A000091838083DE01AD59BF4FFE01E959FF4F1D
:103A1000808191818D939C93FE01ED59FF4F8081B0
:103A200091810197F1F7FE01ED59FF4F918380835A
:103A30000E94F6110C94C0140E94F6118EE191E0E0
:103A40000E94C7108091A701882F90E0A0E0B0E00D
:103A5000BC01CD010E94E31081E060E00E94AD1145
:103A60008AE291E00E94C710FE01E15AFF4F80E018
:103A700090E0AAE7B4E480839183A283B3838E01AC
:103A8000055A1F4FFE01E15AFF4F6081718182810B
:103A9000938120E030E04AEF54E40E941F02DC01F1
:103AA000CB01F80180839183A283B383FE01E55AA1
:103AB000FF4F608171818281938120E030E040E896
:103AC0005FE30E942504882344F4FE01E75AFF4F78
:103AD00081E090E09183808364C0FE01E55AFF4F4E
:103AE000608171818281938120E03FEF4FE757E44D
:103AF0000E94C50318160CF043C0FE01E15AFF4FA7
:103B0000608171818281938120E030E040E251E464
:103B10000E941F02DC01CB018E01075A1F4FBC011E
:103B2000CD010E944900DC01CB01F8019183808323
:103B30001FC0FE01E95AFF4F88EC90E0918380831B
:103B4000FE01E95AFF4F808191810197F1F7FE0153
:103B5000E95AFF4F91838083DE01A75ABF4FFE01D0
:103B6000E75AFF4F80819181019711969C938E9324
:103B7000FE01E75AFF4F808191810097D1F627C05F
:103B80008E01075A1F4FFE01E55AFF4F6081718178
:103B9000828193810E944900DC01CB01F80191836D
:103BA0008083DE01AB5ABF4FFE01E75AFF4F808191
:103BB00091818D939C93FE01EB5AFF4F80819181FF
:103BC0000197F1F7FE01EB5AFF4F918380830E942A
:103BD000F6110C94C01483E064E040E00E940109F7
:103BE0000E94F61189E391E00E94C71081E060E035
:103BF0000E94AD118AE491E00E94C710FE01EF5AC5
:103C0000FF4F80E090E0AAE7B4E480839183A28331
:103C1000B3838E01035B1F4FFE01EF5AFF4F60819C
:103C200071818281938120E030E04AEF54E40E9468
:103C30001F02DC01CB01F80180839183A283B3834F
:103C4000FE01E35BFF4F608171818281938120E0FF
:103C500030E040E85FE30E942504882344F4FE013D
:103C6000E55BFF4F81E090E09183808364C0FE01BB
:103C7000E35BFF4F608171818281938120E03FEFA0
:103C80004FE757E40E94C50318160CF043C0FE012D
:103C9000EF5AFF4F608171818281938120E030E093
:103CA00040E251E40E941F02DC01CB018E01055B62
:103CB0001F4FBC01CD010E944900DC01CB01F8017E
:103CC000918380831FC0FE01E75BFF4F88EC90E08B
:103CD00091838083FE01E75BFF4F80819181019793
:103CE000F1F7FE01E75BFF4F91838083DE01A55B67
:103CF000BF4FFE01E55BFF4F8081918101971196D7
:103D00009C938E93FE01E55BFF4F8081918100972C
:103D1000D1F627C08E01055B1F4FFE01E35BFF4F0D
:103D200060817181828193810E944900DC01CB0115
:103D3000F80191838083DE01A95BBF4FFE01E55B43
:103D4000FF4F808191818D939C93FE01E95BFF4F32
:103D5000808191810197F1F7FE01E95BFF4F91832B
:103D600080830E94F6110C94C01483E065E040E06B
:103D70000E9401098BE591E00E94C71081E060E09C
:103D80000E94AD118AE491E00E94C710FE01ED5B34
:103D9000FF4F80E090E0AAE7B4E480839183A283A0
:103DA000B3838E01015C1F4FFE01ED5BFF4F60810D
:103DB00071818281938120E030E04AEF54E40E94D7
:103DC0001F02DC01CB01F80180839183A283B383BE
:103DD000FE01FF96608171818281938120E030E055
:103DE00040E85FE30E94250488232CF481E090E002
:103DF0009EAF8DAF46C0FE01FF96608171818281CA
:103E0000938120E03FEF4FE757E40E94C503181667
:103E100064F5FE01ED5BFF4F6081718182819381CA
:103E200020E030E040E251E40E941F02DC01CB01BF
:103E3000BC01CD010E944900DC01CB019EAF8DAFDA
:103E40000FC088EC90E09CAF8BAF8BAD9CAD019721
:103E5000F1F79CAF8BAF8DAD9EAD01979EAF8DAF4F
:103E60008DAD9EAD009769F716C0FE01FF9660818B
:103E70007181828193810E944900DC01CB019EAF58
:103E80008DAF8DAD9EAD9AAF89AF89AD9AAD0197DB
:103E9000F1F79AAF89AF0E94F6110C94C01483E039
:103EA00066E040E00E9401098CE691E00E94C710A4
:103EB00081E060E00E94AD118AE491E00E94C710A9
:103EC00080E090E0AAE7B4E48DAB9EABAFABB8AFB7
:103ED0006DA97EA98FA998AD20E030E04AEF54E4A7
:103EE0000E941F02DC01CB0189AB9AABABABBCAB30
:103EF00069A97AA98BA99CA920E030E040E85FE39A
:103F00000E94250488232CF481E090E098AB8FA7D1
:103F10003FC069A97AA98BA99CA920E03FEF4FE790
:103F200057E40E94C50318164CF56DA97EA98FA908
:103F300098AD20E030E040E251E40E941F02DC0135
:103F4000CB01BC01CD010E944900DC01CB0198AB43
:103F50008FA70FC088EC90E09EA78DA78DA59EA58A
:103F60000197F1F79EA78DA78FA598A9019798AB08
:103F70008FA78FA598A9009769F714C069A97AA996
:103F80008BA99CA90E944900DC01CB0198AB8FA7AB
:103F90008FA598A99CA78BA78BA59CA50197F1F746
:103FA0009CA78BA70E94F6110C94C01483E067E0D5
:103FB00040E00E9401098DE791E00E94C71081E076
:103FC00060E00E94AD118AE491E00E94C71080E099
:103FD00090E0AAE7B4E48FA398A7A9A7BAA76FA116
:103FE00078A589A59AA520E030E04AEF54E40E9424
:103FF0001F02DC01CB018BA39CA3ADA3BEA36BA1CD
:104000007CA18DA19EA120E030E040E85FE30E940A
:10401000250488232CF481E090E09AA389A33FC073
:104020006BA17CA18DA19EA120E03FEF4FE757E45B
:104030000E94C50318164CF56FA178A589A59AA50D
:1040400020E030E040E251E40E941F02DC01CB019D
:10405000BC01CD010E944900DC01CB019AA389A3D8
:104060000FC088EC90E098A38F8F8F8D98A1019757
:10407000F1F798A38F8F89A19AA101979AA389A399
:1040800089A19AA1009769F714C06BA17CA18DA1A9
:104090009EA10E944900DC01CB019AA389A389A1BA
:1040A0009AA19E8F8D8F8D8D9E8D0197F1F79E8F9A
:1040B0008D8F0E94F6110C94C01483E060E040E004
:1040C0000E9401098EE891E00E94C71080E090E014
:1040D000AAE7B4E4898F9A8FAB8FBC8F698D7A8DF4
:1040E0008B8D9C8D20E030E04AEF54E40E941F024B
:1040F000DC01CB018D8B9E8BAF8BB88F6D897E8958
:104100008F89988D20E030E040E85FE30E9425042D
:1041100088232CF481E090E09C8B8B8B3FC06D89D1
:104120007E898F89988D20E03FEF4FE757E40E940A
:10413000C50318164CF5698D7A8D8B8D9C8D20E00A
:1041400030E040E251E40E941F02DC01CB01BC01DF
:10415000CD010E944900DC01CB019C8B8B8B0FC0F1
:1041600088EC90E09A8B898B89899A890197F1F77D
:104170009A8B898B8B899C8901979C8B8B8B8B89E4
:104180009C89009769F714C06D897E898F89988D05
:104190000E944900DC01CB019C8B8B8B8B899C8915
:1041A000988B8F878F8598890197F1F7988B8F87E8
:1041B0000E94F6110C94C0140E94F61183E061E095
:1041C00040E00E94010980E690E00E94C71081E073
:1041D00060E00E94AD1180E790E00E94C71080E08F
:1041E00090E0AAE7B4E48B879C87AD87BE876B8598
:1041F0007C858D859E8520E030E04AEF54E40E9466
:104200001F02DC01CB018F839887A987BA876F8152
:10421000788589859A8520E030E040E85FE30E9458
:10422000250488232CF481E090E09E838D833FC099
:104230006F81788589859A8520E03FEF4FE757E4C5
:104240000E94C50318164CF56B857C858D859E856F
:1042500020E030E040E251E40E941F02DC01CB018B
:10426000BC01CD010E944900DC01CB019E838D83FE
:104270000FC088EC90E09C838B838B819C8101979D
:10428000F1F79C838B838D819E8101979E838D8323
:104290008D819E81009769F714C06F81788589852B
:1042A0009A850E944900DC01CB019E838D838D811C
:1042B0009E819A83898389819A810197F1F79A83F4
:1042C00089830E94F6110C94C014A1E21A2EAA1B35
:1042D000BB1BFD010DC0AA1FBB1FEE1FFF1FA217B6
:1042E000B307E407F50720F0A21BB30BE40BF50BB3
:1042F000661F771F881F991F1A9469F7609570953C
:10430000809590959B01AC01BD01CF0108952F923E
:104310003F924F925F926F927F928F929F92AF9255
:10432000BF92CF92DF92EF92FF920F931F93CF93A2
:10433000DF93CDB7DEB7CA1BDB0B0FB6F894DEBF39
:104340000FBECDBF09942A88398848885F846E845F
:104350007D848C849B84AA84B984C884DF80EE80A9
:10436000FD800C811B81AA81B981CE0FD11D0FB6B2
:10437000F894DEBF0FBECDBFED010895FB019F0194
:10438000E8944230C4F04532B4F44A3029F497FB43
:104390001EF4909581959F4F642F77270E94EF21FF
:1043A000805D8A330CF0895D8193CB010097A1F782
:1043B00016F45DE251931082C9010C94DF21DC01F7
:1043C000FC01672F71917723E1F7329704C07C914C
:1043D0006D9370836291AE17BF07C8F30895AA1B4F
:1043E000BB1B51E107C0AA1FBB1FA617B70710F0E0
:1043F000A61BB70B881F991F5A95A9F78095909512
:0A440000BC01CD010895F894FFCF30
:10440A002020204169725F436F6E642E20202000B5
:10441A002020205475726E6564204F464620202065
:10442A00002020205475726E6564204F4E20202093
:10443A0000526F6F6D31207475726E6564204F4E35
:10444A0000526F6F6D32207475726E6564204F4E24
:10445A0000526F6F6D33207475726E6564204F4E13
:10446A0000526F6F6D34207475726E6564204F4E02
:10447A00005456207475726E6564204F4E0043686E
:10448A0065636B2054656D702E00436865636B200D
:10449A0054656D702E2E00436865636B2054656DFC
:1044AA00702E2E2E00446573697265642054656D02
:1044BA00703D00526F6F6D2054656D703D00526FF4
:1044CA006F6D2054656D703C3D00436F6E64697476
:1044DA00696F6E67204F46460020202020526F6F7A
:1044EA006D31202020202020200020202074757289
:1044FA006E6564204F46462020200020202020524E
:10450A006F6F6D32202020202020200020202020C4
:10451A00526F6F6D33202020202020200020202081
:10452A0020526F6F6D342020202020202000545606
:10453A00207475726E6564204F4646202020000064
:0A454A00000000000000001701004F
:00000001FF
